:020000040000FA
:0400000027EF00F0F6
:100008005182FACF08F0FBCF09F0D9CF0AF0DACF46
:100018000BF0F2AA12EF00F014EF00F01DEF00F061
:10002800F2A419EF00F01BEF00F01DEF00F062ECF6
:100038000AF00BC0DAFF0AC0D9FF09C0FBFF08C0ED
:10004800FAFF51921100D7EF09F014EC0BF0000EF3
:100058000D6E000E0C6E46EC0BF0F294F2A437EF26
:1000680000F039EF00F032EF00F0A40E0C6E0F0E26
:100078000D6E4BEC0BF0F28EF28CCE0E0001816F00
:10008800FF0E826FDFEC0AF02A0E0001816FFF0E6F
:10009800826FDFEC0AF0D90E0001816FFF0E826FCC
:1000A800DFEC0AF0FC0E0001816FFF0E826FDFECBF
:1000B8000AF0C282C2B263EF00F065EF00F05EEFB3
:1000C80000F001019551D8B46CEF00F06EEF00F02C
:1000D80005EF02F0000E956F4F0E0001816FFE0EC6
:1000E800826F010E846F000E836FDFEC0AF0000E42
:1000F80001018C6F000E8B6F0F0E8B1500018D6F39
:10010800000E01018C1500018E6F8D518E11D8A43F
:1001180090EF00F092EF00F09CEF00F0E20E816F9C
:10012800FF0E826F8BC183F08CC184F0DFEC0AF084
:10013800F80E0001816FFF0E826F000E01018B2502
:10014800D96E020E8C21DA6EDF5000018D6F8D5151
:10015800836F846BDFEC0AF001018B4B8C2B8C05D1
:10016800D8A0B9EF00F0BBEF00F080EF00F01A0E56
:100178000001816FFE0E826FDFEC0AF0000E0101B4
:100188008E6F000E8D6F000E906F010E8F6FFF0E39
:100198008F25D96E010E9021DA6E810EDF60D7EFC0
:1001A80000F0D9EF00F0F1EF00F0000E8F25D96EC6
:1001B800020E9021DA6E800EDF64E5EF00F0E7EFC3
:1001C80000F0F1EF00F0000E8D25D96E010E8E21A2
:1001D800DA6E8F05DF6E8D4B8E2B8F4B902B900533
:1001E800D8A0F9EF00F0FBEF00F0CBEF00F0000E25
:1001F800886F000E876F18EF01F0F80E0001816F0D
:10020800FF0E826F000E01018725D96E010E88212D
:10021800DA6EDF5000018D6F8D51836F846BDFECD8
:100228000AF00101874B882B8D51875D8E518859C3
:10023800D8A021EF01F023EF01F001EF01F0AE0E9D
:100248000001816FFE0E826F8DC183F08EC184F034
:10025800DFEC0AF0000E0101836F000E826F000EC2
:10026800926F010E916FB4EF01F0B00E0001816F33
:10027800FF0E826F000E01019125D96E010E9221A9
:10028800DA6EDF5000018D6F8D51836F846BFF0E26
:100298008E6FFF0E8F6F91C190F092C191F08E51C9
:1002A80090278F519123000E9025D96E010E912130
:1002B800DA6EDF50926F9251856F866B000E0101E6
:1002C8009125D96E010E9221DA6EDF500001936FED
:1002D800FF0E946FFF0E956F91C196F092C197F043
:1002E8009451962795519723000E9625D96E010EA5
:1002F8009721DA6EDF50986F9851935D876F886BFE
:10030800D8A08807DFEC0AF0000E01019125D96E0C
:10031800010E9221DA6EDF5000018D6F8E6BFF0E99
:100328008F6FFF0E906F91C191F092C192F08F5133
:10033800912790519223000E9125D96E010E92219A
:10034800DA6EDF50936F93518D5F000E8E5B8D5187
:100358000101822700018E5101018323914B922BC9
:100368008D51915D8E519259D8A0BDEF01F0BFEF2C
:1003780001F039EF01F082C10CF083C10DF08DC19D
:100388000EF08EC10FF06BEC09F00CC080F10DC0BF
:1003980081F180C10CF081C10DF0000E0F6E190EB5
:1003A8000E6EF3EC0AF00CC084F10DC085F10F0E4F
:1003B8000001816FFF0E826F84C183F085C184F0D4
:1003C800DFEC0AF0F20E0001816FFE0E826F400E24
:1003D8000C6E420E0D6E0F0E0E6E000E0F6E84C167
:1003E80010F085C111F0126A136A4CEC07F00CC0CA
:1003F80083F00DC084F00EC085F00FC086F0DFECEE
:100408000AF037EC0BF00009D8B40DEF02F00FEF4B
:1004180002F065EF00F0CAEC0AF00101866F1FEFE9
:1004280003F0D10E816FFE0E826FDFEC0AF0BF0E73
:100438000001816FFF0E826FDFEC0AF0EB0E000106
:10044800816FFF0E826FDFEC0AF08A0E0001816F68
:10045800FF0E826FDFEC0AF05B0E0001816FFF0E6A
:10046800826FDFEC0AF0830E0001816FFE0E826F4F
:10047800DFEC0AF0D30E0001816FFD0E826F010ED2
:10048800846F000E836FDFEC0AF0D10E0001816FDC
:10049800FE0E826FDFEC0AF065EF00F0F20E816F5E
:1004A800FF0E826FDFEC0AF065EF00F0000E01012D
:1004B8008A6F000E896F8A5109E1280E895DD8A0DC
:1004C80068EF02F06AEF02F06CEF02F078EF02F0EA
:1004D800810E0001816FFE0E826FDFEC0AF00101D0
:1004E800894B8A2B5FEF02F0FF0065EF00F0000EEA
:1004F80001018A6F000E896F8A5109E1280E895D12
:10050800D8A089EF02F08BEF02F08DEF02F065EFD3
:1005180000F0F50E0001816FFF0E826FDFEC0AF02C
:100528000101894B8A2B80EF02F0050E0101932708
:10053800000E9423430E0001816FFF0E826F0101AC
:10054800935180080001836F01019451D8A0E82AD3
:1005580000080001846F800E010193250001856F5A
:10056800000E010194210001866FDFEC0AF065EFAF
:1005780000F0010193519411D8B4C5EF02F0C7EF10
:1005880002F0EAEF02F0050E935F000E945B430E53
:100598000001816FFF0E826F0101935180080001F5
:1005A800836F01019451D8A0E82A00080001846FE4
:1005B800800E010193250001856F000E0101942131
:1005C8000001866FDFEC0AF065EF00F0430E0001D2
:1005D800816FFF0E826F0101935180080001836FC4
:1005E80001019451D8A0E82A00080001846F800E08
:1005F800010193250001856F000E0101942100017E
:10060800866FDFEC0AF0730E0001816FFF0E826FB8
:10061800DFEC0AF065EF00F0010E506E65EF00F0B8
:100628009F0E816FFF0E826F86C183F0846BDFECB3
:100638000AF065EF00F0865100018D6F8E6B8E51C8
:10064800000AD8B42AEF03F014EF03F08D513F0AE3
:10065800D8B415EF02F06B0AD8B499EF02F00E0A7D
:10066800D8B45AEF02F03C0AD8B410EF03F0090AE4
:10067800D8B452EF02F01B0AD8B4BDEF02F00E0A4C
:10068800D8B47BEF02F014EF03F027EF00F02BC093
:1006980068F02CC069F02DC06AF02EC06BF02FC036
:1006A8006CF030C06DF031C06EF032C06FF00001F8
:1006B8006FBF61EF03F064EF03F0010E65EF03F025
:1006C800000E666F676B66516711D8B46EEF03F062
:1006D80070EF03F080EF03F06F1F6E1F6D1F6C1F2C
:1006E8006B1F6A1F691F686D000E69236A236B23DD
:1006F8006C236D236E236F2348BE85EF03F087EFCD
:1007080003F088EF03F0499248BE95EF03F0485094
:1007180006E14704D8B093EF03F095EF03F09BEFA1
:1007280003F0000E636F010E626F9FEF03F047C086
:1007380062F048C063F045C064F046C065F0665199
:100748006711D8A4AAEF03F0ACEF03F0B3EF03F0FE
:1007580049A4B1EF03F0B3EF03F0B6EF03F0640779
:10076800D8A06507000E716F1F0E706F000EC56F61
:100778003BEF04F07007D8A07107A60E7025D96E5C
:10078800000E7121DA6E68C00CF069C00DF06AC005
:100798000EF06BC00FF06CC010F06DC011F06EC0A1
:1007A80012F06FC013F00A0E146E000E156E000ED4
:1007B800166E000E176E000E186E000E196E000EE3
:1007C8001A6E000E1B6E9AEC06F00CC033F00DC0CA
:1007D80034F00EC035F00FC036F010C037F011C03D
:1007E80038F012C039F013C03AF033C01EF035C0EB
:1007F8001FF022EC0AF01E50300FDF6E0001620776
:10080800D8A063076407D8A0650768C00CF069C062
:100818000DF06AC00EF06BC00FF06CC010F06DC028
:1008280011F06EC012F06FC013F00A0E146E000EB5
:10083800156E000E166E000E176E000E186E000E66
:10084800196E000E1A6E000E1B6ED6EC05F00CC069
:1008580068F00DC069F00EC06AF00FC06BF010C0F0
:100868006CF011C06DF012C06EF013C06FF0000193
:1008780071BF47EF04F0715108E17005D8A047EF48
:1008880004F049EF04F079EF04F0685169116A1136
:100898006B116C116D116E116F11D8A456EF04F025
:1008A80058EF04F0BEEF03F063BF65EF04F0635147
:1008B80006E16205D8B063EF04F065EF04F0BEEF1F
:1008C80003F065BF70EF04F0655108E16405D8A036
:1008D80070EF04F072EF04F079EF04F049B277EFAB
:1008E80004F079EF04F0BEEF03F066516711D8A465
:1008F80080EF04F082EF04F089EF04F049A487EF59
:1009080004F089EF04F0A7EF04F07007D8A071078E
:1009180066516711D8A493EF04F095EF04F09BEFAC
:1009280004F0000E616F2B0E606F9FEF04F0000E55
:10093800616F2D0E606FA60E7025D96E000E7121A5
:10094800DA6E60C0DFFF29C01EF02AC01FF0A60EB5
:100958007025206E000E7121216E64C022F065C0E2
:1009680023F0BFEC08F01EC029F01FC02AF01200C7
:100978003DC0D9FF3EC0DAFFDECFF6FFDDCFF7FF7F
:10098800F86A0800F550250AD8A4CDEF04F0CFEF97
:1009980004F0B9EF05F03DC0D9FF3EC0DAFFDE2A0A
:1009A800000EDD22000E466E000E456E45C049F071
:1009B80046C04AF0476848683DC0D9FF3EC0DAFFE4
:1009C800DECFF6FFDDCFF7FFF86A0800F550630ABF
:1009D800D8A4F1EF04F0F3EF04F01BEF05F03DC0ED
:1009E800D9FF3EC0DAFFDE2A000EDD223FC0D9FF64
:1009F80040C0DAFFDFCF41F0020EDE26DFCF42F043
:100A0800000EDD2241C0D9FF42C0DAFFDF500001ED
:100A18007A6F3BC017F03CC018F07AC019F055EC5B
:100A280008F017C03BF018C03CF0D5EF05F03DC00A
:100A3800D9FF3EC0DAFFDECFF6FFDDCFF7FFF86A59
:100A48000800F550640AD8B42CEF05F02EEF05F035
:100A580041EF05F03DC0D9FF3EC0DAFFDECFF6FF1B
:100A6800DDCFF7FFF86A0800F550690AD8A43FEF10
:100A780005F041EF05F082EF05F03DC0D9FF3EC01B
:100A8800DAFFDE2A000EDD223FC0D9FF40C0DAFFC0
:100A9800DFCF41F0020EDE26DFCF42F0000EDD226E
:100AA80041C0D9FF42C0DAFFDECF72F0DDCF73F06C
:100AB8000001000E73BFFF0E746F756F766F776F4E
:100AC800786F796F3BC029F03CC02AF072C02BF0D8
:100AD80073C02CF074C02DF075C02EF076C02FF0C6
:100AE80077C030F078C031F079C032F04BEC03F0C9
:100AF80029C03BF02AC03CF0D5EF05F03DC0D9FF36
:100B08003EC0DAFFDECFF6FFDDCFF7FFF86A080058
:100B1800F550250AD8A493EF05F095EF05F0ACEF52
:100B280005F03DC0D9FF3EC0DAFFDE2A000EDD2207
:100B3800000E0F6E250E0E6E3BC010F03CC011F07B
:100B480020EC09F0000E3C6E010E3B6ED5EF05F06F
:100B58003DC0D9FF3EC0DAFFDE2A000EDD22000EBE
:100B68003C6E000E3B6ED5EF05F03DC0D9FF3EC090
:100B7800DAFFDECFF6FFDDCFF7FFF86A0800F550A1
:100B88000E6E0F6A3BC010F03CC011F020EC09F06B
:100B98003DC0D9FF3EC0DAFFDE2A000EDD22A6EFF7
:100BA80005F01200000E1D6E1BBEDFEF05F0DDEF35
:100BB80005F0F1EF05F01B1E1A1E191E181E171E50
:100BC800161E151E146C000E152216221722182246
:100BD80019221A221B22010E1D6E13BEF8EF05F012
:100BE800F6EF05F00AEF06F0131E121E111E101E76
:100BF8000F1E0E1E0D1E0C6C000E0D220E220F2253
:100C08001022112212221322010E1D1A20EE1EF0AC
:100C1800070EDE6AE806FDE21450151016101710CC
:100C2800181019101A101B10D8B41DEF06F01FEF7A
:100C380006F071EF06F0010E1C6E2DEF06F0D8904D
:100C48001436153616361736183619361A361B3630
:100C58001C2A1BAE32EF06F034EF06F023EF06F045
:100C6800D8901E361F3620362136223623362436B3
:100C7800253614500C5C15500D5816500E58175048
:100C88000F5818501058195011581A5012581B5014
:100C98001358D8A052EF06F054EF06F065EF06F0AF
:100CA80014500C5E15500D5A16500E5A17500F5A04
:100CB8001850105A1950115A1A50125A1B50135AD8
:100CC8001E80D8901B321A32193218321732163257
:100CD800153214321C2E34EF06F01D50D8B477EFBD
:100CE80006F079EF06F089EF06F0251E241E231E74
:100CF800221E211E201E1F1E1E6C000E1F222022D7
:100D0800212222222322242225221EC00CF01FC0C9
:100D18000DF020C00EF021C00FF022C010F023C04B
:100D280011F024C012F025C013F01200000E1D6E41
:100D380013BEA3EF06F0A1EF06F0B5EF06F0131E01
:100D4800121E111E101E0F1E0E1E0D1E0C6C000E04
:100D58000D220E220F221022112212221322010E1E
:100D68001D6E1BBEBCEF06F0BAEF06F0CCEF06F026
:100D78001B1E1A1E191E181E171E161E151E146C71
:100D8800000E152216221722182219221A221B22B7
:100D98001450151016101710181019101A101B10CF
:100DA800D8B4D9EF06F0DBEF06F023EF07F0010E19
:100DB8001C6EE9EF06F0D89014361536163617363D
:100DC800183619361A361B361C2A1BAEEEEF06F0FB
:100DD800F0EF06F0DFEF06F014500C5C15500D58DC
:100DE80016500E5817500F581850105819501158BF
:100DF8001A5012581B501358D8A005EF07F007EFE8
:100E080007F017EF07F014500C5E15500D5A1650E6
:100E18000E5A17500F5A1850105A1950115A1A5082
:100E2800125A1B50135AD8901B321A3219321832E0
:100E380017321632153214321C2EF0EF06F01D5000
:100E4800D8B429EF07F02BEF07F03BEF07F0131E9C
:100E5800121E111E101E0F1E0E1E0D1E0C6C000EF3
:100E68000D220E220F2210221122122213220CC050
:100E78000CF00DC00DF00EC00EF00FC00FF010C03A
:100E880010F011C011F012C012F013C013F01200CC
:100E9800000E156E13BE55EF07F053EF07F05FEF26
:100EA80007F0131E121E111E106C000E11221222C2
:100EB8001322010E156E0FBE66EF07F064EF07F000
:100EC80070EF07F00F1E0E1E0D1E0C6C000E0D228B
:100ED8000E220F22010E151A000E166E000E176E46
:100EE800000E186E000E196E10501110121013100B
:100EF800D8B481EF07F083EF07F0B9EF07F0010EE0
:100F0800146E8DEF07F0D89010361136123613365E
:100F1800142A13AE92EF07F094EF07F087EF07F06B
:100F2800D890163617361836193610500C5C1150F2
:100F38000D5812500E5813500F58D8A0A6EF07F0AE
:100F4800A8EF07F0B1EF07F010500C5E11500D5AE2
:100F580012500E5A13500F5A1680D890133212326C
:100F680011321032142E94EF07F01550D8B4BFEF99
:100F780007F0C1EF07F0C9EF07F0191E181E171E7A
:100F8800166C000E17221822192216C00CF017C072
:100F98000DF018C00EF019C00FF01200C4CF07F002
:100FA800C2823BEF08F05050D8B4DDEF07F0DFEF16
:100FB80007F054EF08F0010E4F6E000E4E6E000E53
:100FC8004D6E000E506E54EF08F00750036E046A21
:100FD800800E01019325056E000E9421066E0350C4
:100FE800055C04500658D8A0FCEF07F0FEEF07F0A8
:100FF80054EF08F0800E036E000E046E9351035EEA
:101008009451045A0750056E066A0350055C045053
:101018000658D8A012EF08F014EF08F054EF08F0C3
:10102800000E4D24D96E020E4E20DA6E07C0DFFF87
:101038004D4A4E2A020E4F6E54EF08F0000E4D2412
:10104800D96E020E4E20DA6E07C0DFFF4D4A4E2AD7
:101058004E04D8A032EF08F034EF08F054EF08F04F
:10106800010E0101956F000E4F6E54EF08F04F50BE
:10107800036E046A0450000AD8B445EF08F054EF30
:1010880008F00350000AD8B4D7EF07F0010AD8B423
:10109800E9EF07F0030AD8B422EF08F054EF08F09C
:1010A800120045504610D8A45CEF08F05EEF08F037
:1010B80064EF08F045C01DF046C01EF06AEF08F066
:1010C800FF0E45241D6EFF0E46201E6E49A06FEFD1
:1010D80008F071EF08F07AEF08F019C00EF00F6A07
:1010E80017C010F018C011F020EC09F01EBE7FEFF9
:1010F80008F081EF08F083EF08F087EF08F0000EA2
:101108001E6E000E1D6E000E1C6E000E1B6E99EFFB
:1011180008F0000E0F6E200E0E6E17C010F018C0EB
:1011280011F020EC09F01B4A1C2A1D501B5C1C50B6
:10113800800A1A6E1E50800A1A58D8A0A6EF08F026
:10114800A8EF08F08DEF08F049B0ADEF08F0AFEF69
:1011580008F0B8EF08F019C00EF00F6A17C010F0C9
:1011680018C011F020EC09F0010E1B24176E000EB8
:101178001C20186E120049A0C4EF08F0C6EF08F052
:10118800D0EF08F020C017F021C018F01EC019F0E9
:101198001FC01AF000EC0AF023BED5EF08F0D7EF15
:1011A80008F0DDEF08F022C027F023C028F0E1EFB7
:1011B80008F0000E286E000E276E000E266E000E38
:1011C800256EF3EF08F0000E0F6E200E0E6E1EC097
:1011D80010F01FC011F020EC09F0254A262A2750EC
:1011E800255C2650800A246E2850800A2458D8A0EE
:1011F80000EF09F002EF09F0E7EF08F049B007EF58
:1012080009F009EF09F013EF09F020C017F021C029
:1012180018F01EC019F01FC01AF000EC0AF020C028
:101228000CF021C00DF07EEC0AF027500C241E6E45
:1012380028500D201F6E120010501110D8B427EF3F
:1012480009F029EF09F032EF09F010501110D8A475
:1012580030EF09F032EF09F037EF09F00E5041ECAA
:101268000BF06AEF09F020EE04F01050D926115067
:10127800DA22DE50DE10D8B444EF09F046EF09F068
:1012880061EF09F020EE04F01050D9261150DA224F
:1012980010EE02F01050E1261150E222DE50E65C1A
:1012A800E650800A166EDE50800A1658D8B05FEFF6
:1012B80009F061EF09F06AEF09F020EE02F0105032
:1012C800D9261150DA22DE2A000EDD221200000E85
:1012D800116E000E106E0E500F10D8B476EF09F094
:1012E80078EF09F0A0EF09F0010E126E80EF09F017
:1012F800D8900E360F36122A0FAE85EF09F087EF19
:1013080009F07CEF09F0D890103611360E500C5CBD
:101318000F500D58D8A093EF09F095EF09F09AEF08
:1013280009F00E500C5E0F500D5A1080D8900F32F5
:101338000E32122E87EF09F010C00CF011C00DF01C
:1013480012007DC043F07EC044F0000E00019A6F89
:10135800000E996FC3EF09F07BC03BF07CC03CF0F6
:10136800430E3D6E000E3E6E7FC03FF080C040F0E1
:10137800BCEC04F03B50000199273C509A2343C031
:10138800F6FF44C0F7FFF86A0800F5500009D8A432
:10139800D0EF09F0D2EF09F0B0EF09F099C07BF077
:1013A8009AC07CF01200CC0EF66E160EF76E000E88
:1013B800F86E0900F5CF93F10900F5CF94F102EE2C
:1013C80000F011EE00F0EE6AE550E150FCE1E25069
:1013D800FAE10101956B00EE99F02D0EEE6AE80630
:1013E800FDE100EE45F00C0EEE6AE806FDE15190D5
:1013F8005192000129EF00F0000E1D6E000E1C6EC8
:1014080011EF0AF01BC00EF00F6A19C010F01AC0D5
:1014180011F020EC09F01C4A1D2A1C501724D96E23
:101428001D501820DA6EDF501B6E1B50D8A41FEF1A
:101438000AF021EF0AF006EF0AF012001FBE2FEFA4
:101448000AF01F5006E11E04D8B02DEF0AF02FEF66
:101458000AF03DEF0AF01EC020F01FC021F0201E48
:10146800211E204A212A20C01EF021C01FF041EF72
:101478000AF01EC01EF01FC01FF01200080EB86E42
:10148800900EAB6E240EAC6E820EAF6E060EB06E72
:10149800000E0C6E000E0D6E55EC0BF0000E0C6E6F
:1014A800000E0D6E50EC0BF0000E0C6E000E0D6E63
:1014B8005AEC0BF0000E0001A56F1200F2944C508C
:1014C800D76E4BC0D6FF0001A351A411D8B46FEF5B
:1014D8000AF071EF0AF07DEF0AF002D87DEF0AF00A
:1014E8000500FA6EA351FD6EA451FE6EFF6AFA5014
:1014F800120012000CC00EF00DC00FF086EF0AF0BB
:101508000C4A0D2A0CC0D9FF0DC0DAFFDF50D8A451
:1015180090EF0AF092EF0AF084EF0AF00E500C5C9C
:101528000C6E0F500D580D6E1200D59C000ED76E24
:10153800000ED66ED650D7CF0EF00F6A0EC00FF041
:101548000E6A0E104B6E0F504C6EF294F28ACE0E4D
:101558000C6E160E0D6E4BEC0BF09F0ED56E120036
:10156800000E896E000E8A6E000E8B6EBF0E926E94
:101578009368BF0E946E3C0E0F013A6F3F0E396FA1
:101588002F0E386F000E616EF18E12009EAACFEFFB
:101598000AF0D1EF0AF0CAEF0AF0000E0001A56FB9
:1015A800ABA2D9EF0AF0DBEF0AF0DDEF0AF0AB9857
:1015B800AB88AE501200830E00018B6F000E8C6F4B
:1015C800000E7B6F000E7C6F81C07DF082C07EF0C4
:1015D8008B0E7F6F000E806FA5EC09F012000C5087
:1015E8000E02F3CF10F0F4CF11F00C500F02F350AD
:1015F80011260D500E02F350112610C00CF011C028
:101608000DF01200700ED36E040ED26E400E9B6E5B
:10161800D2AE11EF0BF013EF0BF00CEF0BF0120042
:1016280064EC0BF0B4EC0AF006EC0BF02CEC0BF0CD
:1016380099EC0AF042EC0AF012000C6E9EA827EF13
:101648000BF029EF0BF022EF0BF00CC0ADFF1200EE
:10165800000EC16E260EC06E000EC36E000EC46E64
:10166800110EC26E12009EBA3CEF0BF03FEF0BF06A
:10167800010E40EF0BF0000E12000D6E0D5021EC24
:101688000BF012000D50D76E0CC0D6FF12000CC024
:10169800A3F00DC0A4F012000CC09DF00DC09EF088
:1016A80012000CC09FF00DC0A0F012000CC09BF0FF
:1016B8000DC09CF012000250D76E01C0D6FF120078
:0816C800D09E12000A0012007E
:10FDD20000663A2067617468657220256420736149
:10FDE2006D706C65732066726F6D20746865206D2E
:10FDF2006963726F70686F6E6520616E6420636103
:10FE02006C63756C617465207468652066726571D7
:10FE120075656E63790D0A000D0A54686520736F6B
:10FE2200756E6420776176652063726F73736564A3
:10FE32002061742074686520666F6C6C6F77696EE0
:10FE42006720696E64696365733A0D0A00546865D8
:10FE5200206C617374202564204144432073616DDA
:10FE6200706C65732066726F6D20746865206D69B1
:10FE720063726F70686F6E65206172653A200D0A59
:10FE820000542F743A20496E6372656173652F6462
:10FE920065637265617365207468726573686F6CFF
:10FEA20064203133382D3131380D0A000D0A54687F
:10FEB2006520736F756E6420776176652068616472
:10FEC20020256420706572696F64733A0D0A002DF3
:10FED2002D2D2D2D2D2D2D2D2D2D2D2D2D2D2D2D50
:10FEE2002D2D2D2D2D2D2D2D2D2D2D2D2D0D0A00B0
:10FEF2000D07766572616765206672657175656E5C
:10FF02006479203D20256420487A0D0A000D0A619B
:10FF120076657261676520706572696F64203D2045
:10FF220025642075730D0A004D6963726F70686FE6
:10FF32006E65206578706572696D656E74730D0A01
:10FF420000566F6C756D652072616E67653A20258B
:10FF520064202D2025640D0A007A3A20436C6561E5
:10FF62007220746865207465726D696E616C0D0A29
:10FF7200005468726573686F6C64206174206D69E7
:10FF82006E696D756D0D0A005A3A2052657365747B
:10FF92002070726F636573736F720D0A00556E6B1A
:10FFA2006E6F776E206B65792025630D0A002564DC
:10FFB200202D202564203D2025640D0A003F3A2093
:10FFC20048656C70206D656E750D0A00696E4C6136
:10FFD200622030380D0A004465762732310D0A005E
:10FFE2000D0A535B25645D20006F3A206B0D0A00F9
:0EFFF200206B0D0A3E00256420003E2000001A
:020000040020DA
:08000000FFFFFFFFFFFFFFFF00
:020000040030CA
:0E000000FF281F3CFFBF85FF0FC00FE00F4021
:00000001FF
