:020000040000FA
:040000001FEF00F0FE
:100008005D82FACF01F0FBCF02F0F2AA0EEF00F00A
:1000180010EF00F019EF00F0F2A415EF00F017EF61
:1000280000F019EF00F0ECEC06F002C0FBFF01C095
:10003800FAFF5D9211003EEF07F022C03AF023C0AC
:100048003BF024C03CF025C03DF026C03EF027C060
:100058003FF028C040F029C041F041BE36EF00F023
:1000680039EF00F0010E3AEF00F0000E386E396AF1
:1000780038503910D8B443EF00F045EF00F055EF91
:1000880000F0411E401E3F1E3E1E3D1E3C1E3B1EF4
:100098003A6C000E3B223C223D223E223F22402267
:1000A8004122000165BF5BEF00F05DEF00F05EEFFD
:1000B80000F0669365BF6BEF00F0655106E16405DB
:1000C800D8B069EF00F06BEF00F071EF00F0000EB0
:1000D800356E010E346E75EF00F064C034F065C003
:1000E80035F062C036F063C037F038503910D8A404
:1000F80080EF00F082EF00F089EF00F066A587EF4F
:1001080000F089EF00F08CEF00F03606D8A0370633
:10011800000E436E1F0E426E000E936F10EF01F03B
:100128004206D8A04306740E4224D96E000E43201E
:10013800DA6E3AC003F03BC004F03CC005F03DC0A5
:1001480006F03EC007F03FC008F040C009F041C0CB
:100158000AF00A0E0B6E000E0C6E000E0D6E000EED
:100168000E6E000E0F6E000E106E000E116E000E59
:10017800126E8CEC04F003C02AF004C02BF005C00A
:100188002CF006C02DF007C02EF008C02FF009C0D3
:1001980030F00AC031F02AC015F02CC016F0ACECD3
:1001A80006F01550300FDF6E3406D8A03506360637
:1001B800D8A037063AC003F03BC004F03CC005F0B5
:1001C8003DC006F03EC007F03FC008F040C009F04F
:1001D80041C00AF00A0E0B6E000E0C6E000E0D6E7A
:1001E800000E0E6E000E0F6E000E106E000E116ED9
:1001F800000E126EC8EC03F003C03AF004C03BF0E6
:1002080005C03CF006C03DF007C03EF008C03FF016
:1002180009C040F00AC041F043BE1BEF01F0435053
:1002280008E14204D8A01BEF01F01DEF01F04EEFEA
:1002380001F03A503B103C103D103E103F1040106A
:100248004110D8A42AEF01F02CEF01F094EF00F050
:1002580035BE39EF01F0355006E13404D8B037EF38
:1002680001F039EF01F094EF00F037BE44EF01F0F0
:10027800375008E13604D8A044EF01F046EF01F00A
:100288004EEF01F0000166B34CEF01F04EEF01F0C4
:1002980094EF00F038503910D8A455EF01F057EF1B
:1002A80001F05FEF01F0000166A55DEF01F05FEF7F
:1002B80001F07DEF01F04206D8A04306385039100E
:1002C800D8A469EF01F06BEF01F071EF01F0000EB7
:1002D800336E2B0E326E75EF01F0000E336E2D0E5D
:1002E800326E740E4224D96E000E4320DA6E32C08C
:1002F800DFFF20C015F021C016F0740E4224176EDF
:10030800000E4320186E36C019F037C01AF0AAEC58
:1003180005F015C020F016C021F01200A4EC07F07B
:10032800000E046E000E036ED6EC07F0F294F2A4F1
:10033800A0EF01F0A2EF01F09BEF01F0E60E036ED3
:100348000F0E046EDBEC07F0F28EF28CDA0E000171
:10035800966FFF0E976F82EC07F05C0E0001966FA8
:10036800FF0E976F82EC07F0E50E0001966FFF0E07
:10037800976F82EC07F0FB0E0001966FFF0E976FE8
:1003880082EC07F0C7EC07F00009D8B4CEEF01F013
:10039800D0EF01F0C6EF01F06DEC07F00001A26F9D
:1003A80084EF02F03B0E966FFF0E976F82EC07F01A
:1003B800CB0E0001966FFF0E976F82EC07F0EE0EE2
:1003C8000001966FFF0E976F82EC07F0A50E0001F3
:1003D800966FFF0E976F82EC07F08D0E0001966FF7
:1003E800FF0E976F82EC07F0100E0001966FFF0E5C
:1003F800976F82EC07F0930E0001966FFE0E976FD1
:1004080082EC07F03B0E0001966FFF0E976F82ECAF
:1004180007F0C6EF01F0F50E966FFF0E976F82ECAE
:1004280007F0C6EF01F0000EA36F0E0E966FFF0ED9
:10043800976F82EC07F00001A32B270EA36527EF27
:1004480002F029EF02F019EF02F0FF00C6EF01F009
:10045800000EA36FF80E966FFF0E976F82EC07F0F1
:100468000001A32B270EA3653CEF02F03EEF02F03C
:100478002EEF02F0C6EF01F0050EA427000EA5230B
:10048800750E966FFF0E976FA4518008986FA5514F
:10049800D8A0E82A0008996F800EA4259A6F000E4C
:1004A800A5219B6F82EC07F0050E0001A45F000EEA
:1004B800A55B750E966FFF0E976FA4518008986F15
:1004C800A551D8A0E82A0008996F800EA4259A6F34
:1004D800000EA5219B6F82EC07F0DB0E0001966FE2
:1004E800FE0E976F82EC07F0BA0E0001966FFF0EB2
:1004F800976FA2C098F0996B82EC07F0C6EF01F0F5
:10050800A251A06FA16BA151000AD8B48EEF02F0DE
:1005180078EF02F0A0513F0AD8B4D6EF01F06B0A89
:10052800D8B440EF02F00E0AD8B417EF02F03C0A34
:10053800D8B471EF02F0090AD8B40FEF02F01B0A21
:10054800D8B458EF02F00E0AD8B42CEF02F078EFC6
:1005580002F01FEF00F046C0D9FF47C0DAFFDECF38
:10056800F6FFDDCFF7FFF86A0800F550250AD8A492
:10057800C0EF02F0C2EF02F0ABEF03F046C0D9FFC4
:1005880047C0DAFFDE2A000EDD22000E0001636F8D
:10059800000E626F62C066F063C067F064696569E7
:1005A80046C0D9FF47C0DAFFDECFF6FFDDCFF7FF41
:1005B800F86A0800F550630AD8A4E5EF02F0E7EFFF
:1005C80002F00EEF03F046C0D9FF47C0DAFFDE2A7B
:1005D800000EDD2248C0D9FF49C0DAFFDFCF4AF05C
:1005E800020EDE26DFCF4BF0000EDD224AC0D9FF17
:1005F8004BC0DAFFDF50546E44C00EF045C00FF018
:1006080054C010F03EEC05F00EC044F00FC045F0A9
:10061800C7EF03F046C0D9FF47C0DAFFDECFF6FFC9
:10062800DDCFF7FFF86A0800F550640AD8B41FEF69
:1006380003F021EF03F034EF03F046C0D9FF47C0C1
:10064800DAFFDECFF6FFDDCFF7FFF86A0800F550D6
:10065800690AD8A432EF03F034EF03F074EF03F023
:1006680046C0D9FF47C0DAFFDE2A000EDD2248C0A7
:10067800D9FF49C0DAFFDFCF4AF0020EDE26DFCF0E
:100688004BF0000EDD224AC0D9FF4BC0DAFFDECFA7
:100698004CF0DDCF4DF0000E4DBEFF0E4E6E4F6E8E
:1006A800506E516E526E536E44C020F045C021F01A
:1006B8004CC022F04DC023F04EC024F04FC025F0AE
:1006C80050C026F051C027F052C028F053C029F07E
:1006D80021EC00F020C044F021C045F0C7EF03F042
:1006E80046C0D9FF47C0DAFFDECFF6FFDDCFF7FF00
:1006F800F86A0800F550250AD8A485EF03F087EFBB
:1007080003F09EEF03F046C0D9FF47C0DAFFDE2AA8
:10071800000EDD22000E066E250E056E44C007F0A1
:1007280045C008F00DEC06F0000E456E010E446E53
:10073800C7EF03F046C0D9FF47C0DAFFDE2A000E34
:10074800DD22000E456E000E446EC7EF03F046C072
:10075800D9FF47C0DAFFDECFF6FFDDCFF7FFF86A33
:100768000800F550056E066A44C007F045C008F059
:100778000DEC06F046C0D9FF47C0DAFFDE2A000EAE
:10078800DD2298EF03F01200000E146E12BED1EFB6
:1007980003F0CFEF03F0E3EF03F0121E111E101E5B
:1007A8000F1E0E1E0D1E0C1E0B6C000E0C220D22B1
:1007B8000E220F22102211221222010E146E0ABEDE
:1007C800EAEF03F0E8EF03F0FCEF03F00A1E091E5E
:1007D800081E071E061E051E041E036C000E0422BA
:1007E800052206220722082209220A22010E141ACB
:1007F80020EE15F0070EDE6AE806FDE20B500C103D
:100808000D100E100F10101011101210D8B40FEF99
:1008180004F011EF04F063EF04F0010E136E1FEF04
:1008280004F0D8900B360C360D360E360F361036CF
:1008380011361236132A12AE24EF04F026EF04F014
:1008480015EF04F0D89015361636173618361936BF
:100858001A361B361C360B50035C0C5004580D50CE
:1008680005580E5006580F50075810500858115088
:10087800095812500A58D8A044EF04F046EF04F083
:1008880057EF04F00B50035E0C50045A0D50055AF4
:100898000E50065A0F50075A1050085A1150095A4C
:1008A80012500A5A1580D8901232113210320F3273
:1008B8000E320D320C320B32132E26EF04F0145088
:1008C800D8B469EF04F06BEF04F07BEF04F01C1E62
:1008D8001B1E1A1E191E181E171E161E156C000E3A
:1008E80016221722182219221A221B221C2215C08E
:1008F80003F016C004F017C005F018C006F019C0C0
:1009080007F01AC008F01BC009F01CC00AF012005A
:10091800000E146E0ABE95EF04F093EF04F0A7EFF3
:1009280004F00A1E091E081E071E061E051E041EC8
:10093800036C000E0422052206220722082209223F
:100948000A22010E146E12BEAEEF04F0ACEF04F0F2
:10095800BEEF04F0121E111E101E0F1E0E1E0D1EDD
:100968000C1E0B6C000E0C220D220E220F221022E0
:10097800112212220B500C100D100E100F10101017
:1009880011101210D8B4CBEF04F0CDEF04F015EF2E
:1009980005F0010E136EDBEF04F0D8900B360C3621
:1009A8000D360E360F36103611361236132A12AEA1
:1009B800E0EF04F0E2EF04F0D1EF04F00B50035C39
:1009C8000C5004580D5005580E5006580F50075833
:1009D800105008581150095812500A58D8A0F7EF6B
:1009E80004F0F9EF04F009EF05F00B50035E0C502A
:1009F800045A0D50055A0E50065A0F50075A1050F7
:100A0800085A1150095A12500A5AD8901232113203
:100A180010320F320E320D320C320B32132EE2EF3F
:100A280004F01450D8B41BEF05F01DEF05F02DEFBE
:100A380005F00A1E091E081E071E061E051E041EB6
:100A4800036C000E0422052206220722082209222E
:100A58000A2203C003F004C004F005C005F006C074
:100A680006F007C007F008C008F009C009F00AC07E
:100A78000AF01200000162516311D8A446EF05F094
:100A880048EF05F04EEF05F062C014F063C015F0B2
:100A980054EF05F0FF0E6225146EFF0E6321156EEC
:100AA80066A159EF05F05BEF05F064EF05F010C0A3
:100AB80005F0066A0EC007F00FC008F00DEC06F04E
:100AC80015BE69EF05F06BEF05F06DEF05F071EFFE
:100AD80005F0000E156E000E146E000E136E000E5B
:100AE800126E83EF05F0000E066E200E056E0EC026
:100AF80007F00FC008F00DEC06F0124A132A145044
:100B0800125C1350800A116E1550800A1158D8A033
:100B180090EF05F092EF05F077EF05F0000166B170
:100B280098EF05F09AEF05F0A3EF05F010C005F077
:100B3800066A0EC007F00FC008F00DEC06F0010EB3
:100B480012240E6E000E13200F6E1200000166A113
:100B5800B0EF05F0B2EF05F0BCEF05F017C00EF0EE
:100B680018C00FF015C010F016C011F08AEC06F08E
:100B78001ABEC1EF05F0C3EF05F0C9EF05F019C0C3
:100B88001EF01AC01FF0CDEF05F0000E1F6E000E0C
:100B98001E6E000E1D6E000E1C6EDFEF05F0000EBF
:100BA800066E200E056E15C007F016C008F00DEC95
:100BB80006F01C4A1D2A1E501C5C1D50800A1B6E24
:100BC8001F50800A1B58D8A0ECEF05F0EEEF05F097
:100BD800D3EF05F0000166B1F4EF05F0F6EF05F08C
:100BE80000EF06F017C00EF018C00FF015C010F097
:100BF80016C011F08AEC06F017C003F018C004F014
:100C080008EC07F01E500324156E1F500420166EC2
:100C1800120007500810D8B414EF06F016EF06F0CB
:100C28001FEF06F007500810D8A41DEF06F01FEFBD
:100C380006F024EF06F00550D1EC07F057EF06F068
:100C480020EE04F00750D9260850DA22DE50DE10D4
:100C5800D8B431EF06F033EF06F04EEF06F020EE91
:100C680004F00750D9260850DA2210EE02F0075097
:100C7800E1260850E222DE50E65CE650800A0D6E5E
:100C8800DE50800A0D58D8B04CEF06F04EEF06F053
:100C980057EF06F020EE02F00750D9260850DA2266
:100CA800DE2A000EDD22120057C094F058C095F0DD
:100CB800000E0001616F000E606F76EF06F055C000
:100CC80044F056C045F0940E466E000E476E59C06B
:100CD80048F05AC049F0AFEC02F0445000016027D8
:100CE8004550612394C0F6FF95C0F7FFF86A0800E5
:100CF800F5500009D8A483EF06F085EF06F063EFFE
:100D080006F060C055F061C056F01200000E146E77
:100D1800000E136E9BEF06F012C005F0066A10C0B5
:100D280007F011C008F00DEC06F0134A142A13500E
:100D38000E24D96E14500F20DA6EDF50126E125046
:100D4800D8A4A9EF06F0ABEF06F090EF06F012007A
:100D580016BEB9EF06F0165006E11504D8B0B7EF85
:100D680006F0B9EF06F0C7EF06F015C017F016C089
:100D780018F0171E181E174A182A17C015F018C0A1
:100D880016F0CBEF06F015C015F016C016F01200DD
:100D9800080EB86E900EAB6E240EAC6E820EAF6E5F
:100DA800060EB06E000E036E000E046EE5EC07F042
:100DB800000E036E000E046EE0EC07F0000E036EEA
:100DC800000E046EEAEC07F0000E0001726F1200CC
:100DD800F2945C50D76E5BC0D6FF00017051711160
:100DE800D8B4F9EF06F0FBEF06F007EF07F002D8EA
:100DF80007EF07F00500FA6E7051FD6E7151FE6E37
:100E0800FF6AFA501200120003C005F004C006F091
:100E180010EF07F0034A042A03C0D9FF04C0DAFF21
:100E2800DF50D8A41AEF07F01CEF07F00EEF07F019
:100E38000550035C036E06500458046E1200D59CDE
:100E4800000ED76E000ED66ED650D7CF05F0066AC4
:100E580005C006F0056A05105B6E06505C6EF294DC
:100E6800F28AE40E036E0F0E046EDBEC07F09F0EA1
:100E7800D56E1200E20EF66E0F0EF76E000EF86ECB
:100E88000900F5CFA4F00900F5CFA5F000EE60F059
:100E9800340EEE6AE806FDE15C6A5B6A5D905D927D
:100EA800000192EF01F0000E896E000E8A6E000EAE
:100EB8008B6EBF0E926E9368BF0E946E3C0E0F0140
:100EC8003A6F3F0E396F2F0E386F000E616EF18E3C
:100ED80012009EAA72EF07F074EF07F06DEF07F0AB
:100EE800000E0001726FABA27CEF07F07EEF07F0F7
:100EF80080EF07F0AB98AB88AE501200980E000157
:100F08009E6F000E9F6F000E556E000E566E96C0B7
:100F180057F097C058F09E0E596E000E5A6E58EC56
:100F280006F01200700ED36E040ED26E400E9B6E49
:100F3800D2AEA1EF07F0A3EF07F09CEF07F0120085
:100F4800EFEC07F057EC07F096EC07F0BCEC07F075
:100F580023EC07F0CCEC06F01200036E9EA8B7EF66
:100F680007F0B9EF07F0B2EF07F003C0ADFF1200CA
:100F7800000EC16E260EC06E000EC36E000EC46E4B
:100F8800110EC26E12009EBACCEF07F0CFEF07F039
:100F9800010ED0EF07F0000E1200046E0450B1EC01
:100FA80007F012000450D76E03C0D6FF120003C02A
:100FB80070F004C071F0120003C06AF004C06BF056
:100FC800120003C06CF004C06DF0120003C068F09A
:100FD80004C069F01200D09E12000A00120012002C
:10FE920000663A20676174686572203531322073DA
:10FEA200616D706C65732066726F6D207468652079
:10FEB2006D6963726F70686F6E6520616E64206336
:10FEC200616C63756C617465207468652066726527
:10FED2007175656E63790D0A00546865206C6173F3
:10FEE2007420323536204144432073616D706C6555
:10FEF200732066726F6D20746865206D6963726F1E
:10FF020070686F6E65206172653A200D0A00542F89
:10FF1200743A20496E6372656173652F646563721A
:10FF220065617365207468726573686F6C642031F3
:10FF320033382D3131380D0A002D2D2D2D2D2D2D3B
:10FF42002D2D2D2D2D2D2D2D2D2D2D2D2D2D2D2DDF
:10FF52002D2D2D2D2D2D2D0D0A004D6963726F70E3
:10FF6200686F6E65206578706572696D656E747311
:10FF72000D0A00566F6C756D652072616E67653A89
:10FF8200202564202D2025640D0A007A3A20436C36
:10FF920065617220746865207465726D696E616C4A
:10FFA2000D0A005A3A2052657365742070726F63AD
:10FFB2006573736F720D0A00556E6B6E6F776E20EC
:10FFC2006B65792025630D0A003F3A2048656C7005
:10FFD200206D656E750D0A00696E4C6162203038C5
:10FFE2000D0A004465762732310D0A006F3A206B04
:0DFFF2000D0A00206B0D0A3E003E200000AD
:020000040020DA
:08000000FFFFFFFFFFFFFFFF00
:020000040030CA
:0E000000FF281F3CFFBF85FF0FC00FE00F4021
:00000001FF
