:020000040000FA
:0400000027EF00F0F6
:100008005182FACF08F0FBCF09F0D9CF0AF0DACF46
:100018000BF0F2AA12EF00F014EF00F01DEF00F061
:10002800F2A419EF00F01BEF00F01DEF00F065ECF3
:100038000AF00BC0DAFF0AC0D9FF09C0FBFF08C0ED
:10004800FAFF51921100DAEF09F017EC0BF0000EED
:100058000D6E000E0C6E49EC0BF0F294F2A437EF23
:1000680000F039EF00F032EF00F0AA0E0C6E0F0E20
:100078000D6E4EEC0BF0F28EF28CCE0E0001816FFD
:10008800FF0E826FE2EC0AF02A0E0001816FFF0E6C
:10009800826FE2EC0AF0D90E0001816FFF0E826FC9
:1000A800E2EC0AF0FC0E0001816FFF0E826FE2ECB9
:1000B8000AF0C282C2B263EF00F065EF00F05EEFB3
:1000C80000F001019551D8B46CEF00F06EEF00F02C
:1000D80008EF02F0000E956F4F0E0001816FFE0EC3
:1000E800826F010E846F000E836FE2EC0AF0000E3F
:1000F80001018C6F000E8B6F0F0E8B1500018D6F39
:10010800000E01018C1500018E6F8D518E11D8A43F
:1001180090EF00F092EF00F09CEF00F0E20E816F9C
:10012800FF0E826F8BC183F08CC184F0E2EC0AF081
:10013800F80E0001816FFF0E826F000E01018B2502
:10014800D96E020E8C21DA6EDF5000018D6F8D5151
:10015800836F846BE2EC0AF001018B4B8C2B8C05CE
:10016800D8A0B9EF00F0BBEF00F080EF00F01A0E56
:100178000001816FFE0E826FE2EC0AF0000E0101B1
:100188008E6F000E8D6F000E906F010E8F6FFF0E39
:100198008F25D96E010E9021DA6E810EDF60D7EFC0
:1001A80000F0D9EF00F0F1EF00F0000E8F25D96EC6
:1001B800020E9021DA6E800EDF64E5EF00F0E7EFC3
:1001C80000F0F1EF00F0000E8D25D96E010E8E21A2
:1001D800DA6E8F05DF6E8D4B8E2B8F4B902B900533
:1001E800D8A0F9EF00F0FBEF00F0CBEF00F0000E25
:1001F800886F000E876F18EF01F0F80E0001816F0D
:10020800FF0E826F000E01018725D96E010E88212D
:10021800DA6EDF5000018D6F8D51836F846BE2ECD5
:100228000AF00101874B882B8D51875D8E518859C3
:10023800D8A021EF01F023EF01F001EF01F0AE0E9D
:100248000001816FFE0E826F8DC183F08EC184F034
:10025800E2EC0AF0000E0101836F000E826F000EBF
:10026800926F010E916FB4EF01F0B00E0001816F33
:10027800FF0E826F000E01019125D96E010E9221A9
:10028800DA6EDF5000018D6F8D51836F846BFF0E26
:100298008E6FFF0E8F6F91C190F092C191F08E51C9
:1002A80090278F519123000E9025D96E010E912130
:1002B800DA6EDF50926F9251856F866B000E0101E6
:1002C8009125D96E010E9221DA6EDF500001936FED
:1002D800FF0E946FFF0E956F91C196F092C197F043
:1002E8009451962795519723000E9625D96E010EA5
:1002F8009721DA6EDF50986F9851935D876F886BFE
:10030800D8A08807E2EC0AF0000E01019125D96E09
:10031800010E9221DA6EDF5000018D6F8E6BFF0E99
:100328008F6FFF0E906F91C191F092C192F08F5133
:10033800912790519223000E9125D96E010E92219A
:10034800DA6EDF50936F93518D5F000E8E5B8D5187
:100358000101822700018E5101018323914B922BC9
:100368008D51915D8E519259D8A0BDEF01F0BFEF2C
:1003780001F039EF01F082C10CF083C10DF0000EDD
:100388000F6E190E0E6EF6EC0AF00CC080F10DC05F
:1003980081F180C10CF081C10DF0FF0E01018D25A6
:1003A8000E6EFF0E8E210F6E6EEC09F00CC084F1FC
:1003B8000DC085F10F0E0001816FFF0E826F84C1A1
:1003C80083F085C184F0E2EC0AF0F20E0001816F3F
:1003D800FE0E826F400E0C6E420E0D6E0F0E0E6EEC
:1003E800000E0F6E84C110F085C111F0126A136AF5
:1003F8004FEC07F00CC083F00DC084F00EC085F000
:100408000FC086F0E2EC0AF03AEC0BF00009D8B421
:1004180010EF02F012EF02F065EF00F0CDEC0AF0F9
:100428000101866F22EF03F0D10E816FFE0E826FFD
:10043800E2EC0AF0BF0E0001816FFF0E826FE2EC62
:100448000AF0EB0E0001816FFF0E826FE2EC0AF0FA
:100458008A0E0001816FFF0E826FE2EC0AF05B0EDC
:100468000001816FFF0E826FE2EC0AF0830E00013B
:10047800816FFE0E826FE2EC0AF0D30E0001816FED
:10048800FD0E826F010E846F000E836FE2EC0AF09E
:10049800D10E0001816FFE0E826FE2EC0AF065EF6B
:1004A80000F0F20E816FFF0E826FE2EC0AF065EF4A
:1004B80000F0000E01018A6F000E896F8A5109E170
:1004C800280E895DD8A06BEF02F06DEF02F06FEF98
:1004D80002F07BEF02F0810E0001816FFE0E826F49
:1004E800E2EC0AF00101894B8A2B62EF02F0FF006F
:1004F80065EF00F0000E01018A6F000E896F8A51C6
:1005080009E1280E895DD8A08CEF02F08EEF02F089
:1005180090EF02F065EF00F0F50E0001816FFF0E1D
:10052800826FE2EC0AF00101894B8A2B83EF02F01B
:10053800050E01019327000E9423430E0001816FDD
:10054800FF0E826F0101935180080001836F010142
:100558009451D8A0E82A00080001846F800E010198
:1005680093250001856F000E010194210001866F1B
:10057800E2EC0AF065EF00F0010193519411D8B450
:10058800C8EF02F0CAEF02F0EDEF02F0050E935F3C
:10059800000E945B430E0001816FFF0E826F010114
:1005A800935180080001836F01019451D8A0E82A73
:1005B80000080001846F800E010193250001856FFA
:1005C800000E010194210001866FE2EC0AF065EF4C
:1005D80000F0430E0001816FFF0E826F01019351FD
:1005E80080080001836F01019451D8A0E82A00080F
:1005F8000001846F800E010193250001856F000EB4
:10060800010194210001866FE2EC0AF0730E0001EB
:10061800816FFF0E826FE2EC0AF065EF00F0010EC9
:10062800506E65EF00F09F0E816FFF0E826F86C1DE
:1006380083F0846BE2EC0AF065EF00F0865100016C
:100648008D6F8E6B8E51000AD8B42DEF03F017EF23
:1006580003F08D513F0AD8B418EF02F06B0AD8B4F2
:100668009CEF02F00E0AD8B45DEF02F03C0AD8B451
:1006780013EF03F0090AD8B455EF02F01B0AD8B4F7
:10068800C0EF02F00E0AD8B47EEF02F017EF03F0C5
:1006980027EF00F02BC068F02CC069F02DC06AF07D
:1006A8002EC06BF02FC06CF030C06DF031C06EF012
:1006B80032C06FF000016FBF64EF03F067EF03F023
:1006C800010E68EF03F0000E666F676B66516711E5
:1006D800D8B471EF03F073EF03F083EF03F06F1FEB
:1006E8006E1F6D1F6C1F6B1F6A1F691F686D000EE0
:1006F80069236A236B236C236D236E236F2348BE03
:1007080088EF03F08AEF03F08BEF03F0499248BEBD
:1007180098EF03F0485006E14704D8B096EF03F08D
:1007280098EF03F09EEF03F0000E636F010E626F07
:10073800A2EF03F047C062F048C063F045C064F020
:1007480046C065F066516711D8A4ADEF03F0AFEF6E
:1007580003F0B6EF03F049A4B4EF03F0B6EF03F0EB
:10076800B9EF03F06407D8A06507000E716F1F0E7C
:10077800706F000EC56F3EEF04F07007D8A07107C8
:10078800A60E7025D96E000E7121DA6E68C00CF0C5
:1007980069C00DF06AC00EF06BC00FF06CC010F0AD
:1007A8006DC011F06EC012F06FC013F00A0E146E17
:1007B800000E156E000E166E000E176E000E186EE7
:1007C800000E196E000E1A6E000E1B6E9DEC06F0E0
:1007D8000CC033F00DC034F00EC035F00FC036F049
:1007E80010C037F011C038F012C039F013C03AF019
:1007F80033C01EF035C01FF025EC0AF01E50300F34
:10080800DF6E00016207D8A063076407D8A06507F8
:1008180068C00CF069C00DF06AC00EF06BC00FF034
:100828006CC010F06DC011F06EC012F06FC013F004
:100838000A0E146E000E156E000E166E000E176E60
:10084800000E186E000E196E000E1A6E000E1B6E4A
:10085800D9EC05F00CC068F00DC069F00EC06AF064
:100868000FC06BF010C06CF011C06DF012C06EF0CC
:1008780013C06FF0000171BF4AEF04F0715108E135
:100888007005D8A04AEF04F04CEF04F07CEF04F0B8
:10089800685169116A116B116C116D116E116F112C
:1008A800D8A459EF04F05BEF04F0C1EF03F063BF85
:1008B80068EF04F0635106E16205D8B066EF04F012
:1008C80068EF04F0C1EF03F065BF73EF04F0655102
:1008D80008E16405D8A073EF04F075EF04F07CEF2D
:1008E80004F049B27AEF04F07CEF04F0C1EF03F0B2
:1008F80066516711D8A483EF04F085EF04F08CEFFC
:1009080004F049A48AEF04F08CEF04F0AAEF04F095
:100918007007D8A0710766516711D8A496EF04F044
:1009280098EF04F09EEF04F0000E616F2B0E606FDD
:10093800A2EF04F0000E616F2D0E606FA60E7025F9
:10094800D96E000E7121DA6E60C0DFFF29C01EF07B
:100958002AC01FF0A60E7025206E000E7121216E90
:1009680064C022F065C023F0C2EC08F01EC029F074
:100978001FC02AF012003DC0D9FF3EC0DAFFDECF0B
:10098800F6FFDDCFF7FFF86A0800F550250AD8A46E
:10099800D0EF04F0D2EF04F0BCEF05F03DC0D9FF72
:1009A8003EC0DAFFDE2A000EDD22000E466E000E83
:1009B800456E45C049F046C04AF0476848683DC0A2
:1009C800D9FF3EC0DAFFDECFF6FFDDCFF7FFF86ACA
:1009D8000800F550630AD8A4F4EF04F0F6EF04F029
:1009E8001EEF05F03DC0D9FF3EC0DAFFDE2A000E3B
:1009F800DD223FC0D9FF40C0DAFFDFCF41F0020E51
:100A0800DE26DFCF42F0000EDD2241C0D9FF42C012
:100A1800DAFFDF5000017A6F3BC017F03CC018F0D6
:100A28007AC019F058EC08F017C03BF018C03CF039
:100A3800D8EF05F03DC0D9FF3EC0DAFFDECFF6FFA4
:100A4800DDCFF7FFF86A0800F550640AD8B42FEF35
:100A580005F031EF05F044EF05F03DC0D9FF3EC089
:100A6800DAFFDECFF6FFDDCFF7FFF86A0800F550B2
:100A7800690AD8A442EF05F044EF05F085EF05F0C8
:100A88003DC0D9FF3EC0DAFFDE2A000EDD223FC09E
:100A9800D9FF40C0DAFFDFCF41F0020EDE26DFCFFC
:100AA80042F0000EDD2241C0D9FF42C0DAFFDECF9E
:100AB80072F0DDCF73F00001000E73BFFF0E746F8C
:100AC800756F766F776F786F796F3BC029F03CC090
:100AD8002AF072C02BF073C02CF074C02DF075C0D2
:100AE8002EF076C02FF077C030F078C031F079C0A2
:100AF80032F04EEC03F029C03BF02AC03CF0D8EFAE
:100B080005F03DC0D9FF3EC0DAFFDECFF6FFDDCFEE
:100B1800F7FFF86A0800F550250AD8A496EF05F003
:100B280098EF05F0AFEF05F03DC0D9FF3EC0DAFF02
:100B3800DE2A000EDD22000E0F6E250E0E6E3BC063
:100B480010F03CC011F023EC09F0000E3C6E010ED1
:100B58003B6ED8EF05F03DC0D9FF3EC0DAFFDE2A74
:100B6800000EDD22000E3C6E000E3B6ED8EF05F045
:100B78003DC0D9FF3EC0DAFFDECFF6FFDDCFF7FF7D
:100B8800F86A0800F5500E6E0F6A3BC010F03CC0C2
:100B980011F023EC09F03DC0D9FF3EC0DAFFDE2A90
:100BA800000EDD22A9EF05F01200000E1D6E1BBE1F
:100BB800E2EF05F0E0EF05F0F4EF05F01B1E1A1E5A
:100BC800191E181E171E161E151E146C000E15224F
:100BD80016221722182219221A221B22010E1D6E14
:100BE80013BEFBEF05F0F9EF05F00DEF06F0131E4D
:100BF800121E111E101E0F1E0E1E0D1E0C6C000E56
:100C08000D220E220F221022112212221322010E6F
:100C18001D1A20EE1EF0070EDE6AE806FDE21450EB
:100C2800151016101710181019101A101B10D8B418
:100C380020EF06F022EF06F074EF06F0010E1C6EAE
:100C480030EF06F0D89014361536163617361836A3
:100C580019361A361B361C2A1BAE35EF06F037EF4D
:100C680006F026EF06F0D8901E361F3620362136BD
:100C7800223623362436253614500C5C15500D5870
:100C880016500E5817500F58185010581950115820
:100C98001A5012581B501358D8A055EF06F057EFAA
:100CA80006F068EF06F014500C5E15500D5A1650F9
:100CB8000E5A17500F5A1850105A1950115A1A50E4
:100CC800125A1B50135A1E80D8901B321A321932EE
:100CD800183217321632153214321C2E37EF06F03E
:100CE8001D50D8B47AEF06F07CEF06F08CEF06F0D2
:100CF800251E241E231E221E211E201E1F1E1E6CA2
:100D0800000E1F22202221222222232224222522F1
:100D18001EC00CF01FC00DF020C00EF021C00FF057
:100D280022C010F023C011F024C012F025C013F027
:100D38001200000E1D6E13BEA6EF06F0A4EF06F01B
:100D4800B8EF06F0131E121E111E101E0F1E0E1EE7
:100D58000D1E0C6C000E0D220E220F2210221122E5
:100D680012221322010E1D6E1BBEBFEF06F0BDEF4F
:100D780006F0CFEF06F01B1E1A1E191E181E171EAE
:100D8800161E151E146C000E152216221722182284
:100D980019221A221B221450151016101710181099
:100DA80019101A101B10D8B4DCEF06F0DEEF06F0AD
:100DB80026EF07F0010E1C6EECEF06F0D890143603
:100DC800153616361736183619361A361B361C2AB3
:100DD8001BAEF1EF06F0F3EF06F0E2EF06F0145069
:100DE8000C5C15500D5816500E5817500F581850C7
:100DF8001058195011581A5012581B501358D8A08F
:100E080008EF07F00AEF07F01AEF07F014500C5E2E
:100E180015500D5A16500E5A17500F5A1850105A8E
:100E28001950115A1A50125A1B50135AD8901B3283
:100E38001A321932183217321632153214321C2E61
:100E4800F3EF06F01D50D8B42CEF07F02EEF07F0A3
:100E58003EEF07F0131E121E111E101E0F1E0E1E4F
:100E68000D1E0C6C000E0D220E220F2210221122D4
:100E7800122213220CC00CF00DC00DF00EC00EF0A3
:100E88000FC00FF010C010F011C011F012C012F016
:100E980013C013F01200000E156E13BE58EF07F0C2
:100EA80056EF07F062EF07F0131E121E111E106CAA
:100EB800000E112212221322010E156E0FBE69EFC9
:100EC80007F067EF07F073EF07F00F1E0E1E0D1EF9
:100ED8000C6C000E0D220E220F22010E151A000EA8
:100EE800166E000E176E000E186E000E196E10505A
:100EF800111012101310D8B484EF07F086EF07F022
:100F0800BCEF07F0010E146E90EF07F0D890103682
:100F1800113612361336142A13AE95EF07F097EFF1
:100F280007F08AEF07F0D8901636173618361936B4
:100F380010500C5C11500D5812500E5813500F5889
:100F4800D8A0A9EF07F0ABEF07F0B4EF07F0105007
:100F58000C5E11500D5A12500E5A13500F5A16802B
:100F6800D8901332123211321032142E97EF07F044
:100F78001550D8B4C2EF07F0C4EF07F0CCEF07F074
:100F8800191E181E171E166C000E17221822192279
:100F980016C00CF017C00DF018C00EF019C00FF0F5
:100FA8001200C4CF07F0C2823EEF08F05050D8B408
:100FB800E0EF07F0E2EF07F057EF08F0010E4F6E91
:100FC800000E4E6E000E4D6E000E506E57EF08F07C
:100FD800800E01019325036E000E9421046E0750C4
:100FE800056E066A0350055C04500658D8B0FFEF3A
:100FF80007F001EF08F017EF08F00750036E046AD6
:10100800800E056E000E066E9351055E9451065AC9
:101018000350055C04500658D8A015EF08F017EFE8
:1010280008F057EF08F0000E4D24D96E020E4E203E
:10103800DA6E07C0DFFF4D4A4E2A020E4F6E57EF99
:1010480008F0000E4D24D96E020E4E20DA6E07C04D
:10105800DFFF4D4A4E2A4E04D8A035EF08F037EF8F
:1010680008F057EF08F0010E0101956F000E4F6E62
:1010780057EF08F04F50036E046A0450000AD8B4C2
:1010880048EF08F057EF08F00350000AD8B4DAEF39
:1010980007F0010AD8B4ECEF07F0030AD8B425EF3B
:1010A80008F057EF08F0120045504610D8A45FEF3B
:1010B80008F061EF08F067EF08F045C01DF046C082
:1010C8001EF06DEF08F0FF0E45241D6EFF0E462042
:1010D8001E6E49A072EF08F074EF08F07DEF08F07B
:1010E80019C00EF00F6A17C010F018C011F023ECE9
:1010F80009F01EBE82EF08F084EF08F086EF08F0D2
:101108008AEF08F0000E1E6E000E1D6E000E1C6E9B
:10111800000E1B6E9CEF08F0000E0F6E200E0E6E78
:1011280017C010F018C011F023EC09F01B4A1C2A54
:101138001D501B5C1C50800A1A6E1E50800A1A58DB
:10114800D8A0A9EF08F0ABEF08F090EF08F049B08D
:10115800B0EF08F0B2EF08F0BBEF08F019C00EF0DE
:101168000F6A17C010F018C011F023EC09F0010E37
:101178001B24176E000E1C20186E120049A0C7EF22
:1011880008F0C9EF08F0D3EF08F020C017F021C02D
:1011980018F01EC019F01FC01AF003EC0AF023BEA5
:1011A800D8EF08F0DAEF08F0E0EF08F022C027F0F7
:1011B80023C028F0E4EF08F0000E286E000E276E1A
:1011C800000E266E000E256EF6EF08F0000E0F6E6C
:1011D800200E0E6E1EC010F01FC011F023EC09F097
:1011E800254A262A2750255C2650800A246E285036
:1011F800800A2458D8A003EF09F005EF09F0EAEFB8
:1012080008F049B00AEF09F00CEF09F016EF09F001
:1012180020C017F021C018F01EC019F01FC01AF026
:1012280003EC0AF020C00CF021C00DF081EC0AF0AC
:1012380027500C241E6E28500D201F6E12001050CF
:101248001110D8B42AEF09F02CEF09F035EF09F0A6
:1012580010501110D8A433EF09F035EF09F03AEF28
:1012680009F00E5044EC0BF06DEF09F020EE04F09D
:101278001050D9261150DA22DE50DE10D8B447EFCC
:1012880009F049EF09F064EF09F020EE04F010507E
:10129800D9261150DA2210EE02F01050E126115032
:1012A800E222DE50E65CE650800A166EDE50800AC6
:1012B8001658D8B062EF09F064EF09F06DEF09F045
:1012C80020EE02F01050D9261150DA22DE2A000E44
:1012D800DD221200000E116E000E106E0E500F105F
:1012E800D8B479EF09F07BEF09F0A3EF09F0010E0C
:1012F800126E83EF09F0D8900E360F36122A0FAE11
:1013080088EF09F08AEF09F07FEF09F0D8901036DE
:1013180011360E500C5C0F500D58D8A096EF09F0FE
:1013280098EF09F09DEF09F00E500C5E0F500D5A22
:101338001080D8900F320E32122E8AEF09F010C0AA
:101348000CF011C00DF012007DC043F07EC044F0D7
:10135800000E00019A6F000E996FC6EF09F07BC06E
:101368003BF07CC03CF0430E3D6E000E3E6E7FC0ED
:101378003FF080C040F0BFEC04F03B5000019927DB
:101388003C509A2343C0F6FF44C0F7FFF86A0800B0
:10139800F5500009D8A4D3EF09F0D5EF09F0B3EF61
:1013A80009F099C07BF09AC07CF01200D20EF66E5C
:1013B800160EF76E000EF86E0900F5CF93F10900CE
:1013C800F5CF94F102EE00F011EE00F0EE6AE55070
:1013D800E150FCE1E250FAE10101956B00EE99F071
:1013E8002D0EEE6AE806FDE100EE45F00C0EEE6A01
:1013F800E806FDE151905192000129EF00F0000E3E
:101408001D6E000E1C6E14EF0AF01BC00EF00F6A62
:1014180019C010F01AC011F023EC09F01C4A1D2A5B
:101428001C501724D96E1D501820DA6EDF501B6E21
:101438001B50D8A422EF0AF024EF0AF009EF0AF0B3
:1014480012001FBE32EF0AF01F5006E11E04D8B08A
:1014580030EF0AF032EF0AF040EF0AF01EC020F039
:101468001FC021F0201E211E204A212A20C01EF064
:1014780021C01FF044EF0AF01EC01EF01FC01FF06D
:101488001200080EB86E900EAB6E240EAC6E820E73
:10149800AF6E060EB06E000E0C6E000E0D6E58ECA0
:1014A8000BF0000E0C6E000E0D6E53EC0BF0000EE0
:1014B8000C6E000E0D6E5DEC0BF0000E0001A56FBA
:1014C8001200F2944C50D76E4BC0D6FF0001A351C6
:1014D800A411D8B472EF0AF074EF0AF080EF0AF0A2
:1014E80002D880EF0AF00500FA6EA351FD6EA451F0
:1014F800FE6EFF6AFA50120012000CC00EF00DC00A
:101508000FF089EF0AF00C4A0D2A0CC0D9FF0DC064
:10151800DAFFDF50D8A493EF0AF095EF0AF087EFCF
:101528000AF00E500C5C0C6E0F500D580D6E120028
:10153800D59C000ED76E000ED66ED650D7CF0EF0C3
:101548000F6A0EC00FF00E6A0E104B6E0F504C6EE5
:10155800F294F28AD40E0C6E160E0D6E4EEC0BF051
:101568009F0ED56E1200000E896E000E8A6E000E58
:101578008B6EBF0E926E9368BF0E946E3C0E0F0179
:101588003A6F3F0E396F2F0E386F000E616EF18E75
:1015980012009EAAD2EF0AF0D4EF0AF0CDEF0AF0BB
:1015A800000E0001A56FABA2DCEF0AF0DEEF0AF037
:1015B800E0EF0AF0AB98AB88AE501200830E000142
:1015C8008B6F000E8C6F000E7B6F000E7C6F81C0DE
:1015D8007DF082C07EF08B0E7F6F000E806FA8ECCE
:1015E80009F012000C500E02F3CF10F0F4CF11F0F6
:1015F8000C500F02F35011260D500E02F350112615
:1016080010C00CF011C00DF01200700ED36E040E55
:10161800D26E400E9B6ED2AE14EF0BF016EF0BF0AD
:101628000FEF0BF0120067EC0BF0B7EC0AF009ECC7
:101638000BF02FEC0BF09CEC0AF045EC0AF01200D2
:101648000C6E9EA82AEF0BF02CEF0BF025EF0BF099
:101658000CC0ADFF1200000EC16E260EC06E000E4B
:10166800C36E000EC46E110EC26E12009EBA3FEF1A
:101678000BF042EF0BF0010E43EF0BF0000E1200DF
:101688000D6E0D5024EC0BF012000D50D76E0CC0EF
:10169800D6FF12000CC0A3F00DC0A4F012000CC0BD
:1016A8009DF00DC09EF012000CC09FF00DC0A0F080
:1016B80012000CC09BF00DC09CF012000250D76EB7
:0E16C80001C0D6FF1200D09E12000A001200D0
:10FDD20000663A2067617468657220256420736149
:10FDE2006D706C65732066726F6D20746865206D2E
:10FDF2006963726F70686F6E6520616E6420636103
:10FE02006C63756C617465207468652066726571D7
:10FE120075656E63790D0A000D0A54686520736F6B
:10FE2200756E6420776176652063726F73736564A3
:10FE32002061742074686520666F6C6C6F77696EE0
:10FE42006720696E64696365733A0D0A00546865D8
:10FE5200206C617374202564204144432073616DDA
:10FE6200706C65732066726F6D20746865206D69B1
:10FE720063726F70686F6E65206172653A200D0A59
:10FE820000542F743A20496E6372656173652F6462
:10FE920065637265617365207468726573686F6CFF
:10FEA20064203133382D3131380D0A000D0A54687F
:10FEB2006520736F756E6420776176652068616472
:10FEC20020256420706572696F64733A0D0A002DF3
:10FED2002D2D2D2D2D2D2D2D2D2D2D2D2D2D2D2D50
:10FEE2002D2D2D2D2D2D2D2D2D2D2D2D2D0D0A00B0
:10FEF2000D07766572616765206672657175656E5C
:10FF02006479203D20256420487A0D0A000D0A619B
:10FF120076657261676520706572696F64203D2045
:10FF220025642075730D0A004D6963726F70686FE6
:10FF32006E65206578706572696D656E74730D0A01
:10FF420000566F6C756D652072616E67653A20258B
:10FF520064202D2025640D0A007A3A20436C6561E5
:10FF62007220746865207465726D696E616C0D0A29
:10FF7200005468726573686F6C64206174206D69E7
:10FF82006E696D756D0D0A005A3A2052657365747B
:10FF92002070726F636573736F720D0A00556E6B1A
:10FFA2006E6F776E206B65792025630D0A002564DC
:10FFB200202D202564203D2025640D0A003F3A2093
:10FFC20048656C70206D656E750D0A00696E4C6136
:10FFD200622030380D0A004465762732310D0A005E
:10FFE2000D0A535B25645D20006F3A206B0D0A00F9
:0EFFF200206B0D0A3E00256420003E2000001A
:020000040020DA
:08000000FFFFFFFFFFFFFFFF00
:020000040030CA
:0E000000FF281F3CFFBF85FF0FC00FE00F4021
:00000001FF
