:020000040000FA
:0400000027EF00F0F6
:100008005382FACF08F0FBCF09F0D9CF0AF0DACF44
:100018000BF0F2AA12EF00F014EF00F01DEF00F061
:10002800F2A419EF00F01BEF00F01DEF00F0EEEC6A
:1000380007F00BC0DAFF0AC0D9FF09C0FBFF08C0F0
:10004800FAFF53921100D1EF07F08CEC08F0000E84
:100058000D6E000E0C6EBEEC08F0F294F2A437EFB1
:1000680000F039EF00F032EF00F0520E0C6E0B0E7C
:100078000D6EC3EC08F0F28EF28CD70E0001EE6F15
:10008800FF0EEF6F56EC08F0420E0001EE6FFF0E08
:10009800EF6F56EC08F0E20E0001EE6FFF0EEF6F07
:1000A80056EC08F0FC0E0001EE6FFF0EEF6F56ECF9
:1000B80008F0C282C2B263EF00F065EF00F05EEFB5
:1000C80000F00001AC51D8B46CEF00F06EEF00F016
:1000D8009AEF00F0000EAC6FC10EEE6FFE0EEF6FE0
:1000E80056EC08F0000E0001F96FF80EEE6FFF0EE7
:1000F800EF6F600EF925D96EDA6A000EDA22DF504A
:10010800456E4550F06FF16B56EC08F00001F92B85
:100118003F0EF96592EF00F094EF00F079EF00F0F0
:10012800F30EEE6FFE0EEF6F56EC08F0AFEC08F032
:100138000009D8B4A2EF00F0A4EF00F065EF00F0DA
:100148006AEC08F00001F86F7DEF01F0210EEE6F08
:10015800FF0EEF6F56EC08F0C80E0001EE6FFF0EB1
:10016800EF6F56EC08F0EB0E0001EE6FFF0EEF6F2D
:1001780056EC08F0A20E0001EE6FFF0EEF6F56EC82
:1001880008F0730E0001EE6FFF0EEF6F56EC08F0EB
:10019800F60E0001EE6FFE0EEF6F56EC08F0790ECA
:1001A8000001EE6FFE0EEF6F56EC08F0210E000115
:1001B800EE6FFF0EEF6F56EC08F065EF00F0F20EF1
:1001C800EE6FFF0EEF6F56EC08F065EF00F0000ED3
:1001D800FA6FF40EEE6FFE0EEF6F56EC08F00001AA
:1001E800FA2B270EFA65FBEF00F0FDEF00F0EDEFBC
:1001F80000F0FF0065EF00F0000EFA6FF50EEE6FED
:10020800FF0EEF6F56EC08F00001FA2B270EFA6587
:1002180010EF01F012EF01F002EF01F065EF00F0CE
:10022800050EFB27000EFC235B0EEE6FFF0EEF6F33
:10023800FB518008F06FFC51D8A0E82A0008F16F44
:10024800800EFB25F26F000EFC21F36F56EC08F0D0
:1002580065EF00F0FB51FC11D8B435EF01F037EF32
:1002680001F051EF01F0050EFB5F000EFC5B5B0E29
:10027800EE6FFF0EEF6FFB518008F06FFC51D8A0B6
:10028800E82A0008F16F800EFB25F26F000EFC21B2
:10029800F36F56EC08F065EF00F05B0EEE6FFF0EA3
:1002A800EF6FFB518008F06FFC51D8A0E82A0008D6
:1002B800F16F800EFB25F26F000EFC21F36F56ECF8
:1002C80008F08B0E0001EE6FFF0EEF6F56EC08F092
:1002D80065EF00F0010E526E65EF00F0B70EEE6F9D
:1002E800FF0EEF6FF8C0F0F0F16B56EC08F065EF19
:1002F80000F0F851456E466A4650000AD8B487EFB8
:1003080001F072EF01F045503F0AD8B4AAEF00F0AF
:100318006B0AD8B414EF01F00E0AD8B4EBEF00F072
:100328003C0AD8B46EEF01F0090AD8B4E3EF00F044
:100338001B0AD8B42EEF01F00E0AD8B400EF01F072
:1003480072EF01F027EF00F02BC0D5F02CC0D6F0EB
:100358002DC0D7F02EC0D8F02FC0D9F030C0DAF0B9
:1003680031C0DBF032C0DCF00001DCBFBEEF01F0D1
:10037800C1EF01F0010EC2EF01F0000ED36FD46B94
:10038800D351D411D8B4CBEF01F0CDEF01F0DDEFAC
:1003980001F0DC1FDB1FDA1FD91FD81FD71FD61F9C
:1003A800D56D000ED623D723D823D923DA23DB2310
:1003B800DC234ABEE2EF01F0E4EF01F0E5EF01F0E3
:1003C8004B924ABEF2EF01F04A5006E14904D8B018
:1003D800F0EF01F0F2EF01F0F8EF01F0000ED06F4E
:1003E800010ECF6FFCEF01F049C0CFF04AC0D0F04A
:1003F80047C0D1F048C0D2F0D351D411D8A407EFE8
:1004080002F009EF02F010EF02F04BA40EEF02F039
:1004180010EF02F013EF02F0D107D8A0D207000EB8
:10042800DE6F1F0EDD6F000ECC6F98EF02F0DD0758
:10043800D8A0DE07AD0EDD25D96E000EDE21DA6EFE
:10044800D5C00CF0D6C00DF0D7C00EF0D8C00FF054
:10045800D9C010F0DAC011F0DBC012F0DCC013F024
:100468000A0E146E000E156E000E166E000E176E34
:10047800000E186E000E196E000E1A6E000E1B6E1E
:10048800F7EC04F00CC033F00DC034F00EC035F0BA
:100498000FC036F010C037F011C038F012C039F074
:1004A80013C03AF033C01EF035C01FF092EC07F0CD
:1004B8001E50300FDF6E0001CF07D8A0D007D1073C
:1004C800D8A0D207D5C00CF0D6C00DF0D7C00EF01A
:1004D800D8C00FF0D9C010F0DAC011F0DBC012F0AC
:1004E800DCC013F00A0E146E000E156E000E166EA8
:1004F800000E176E000E186E000E196E000E1A6EA2
:10050800000E1B6E33EC04F00CC0D5F00DC0D6F015
:100518000EC0D7F00FC0D8F010C0D9F011C0DAF073
:1005280012C0DBF013C0DCF00001DEBFA4EF02F064
:10053800DE5108E1DD05D8A0A4EF02F0A6EF02F035
:10054800D6EF02F0D551D611D711D811D911DA1139
:10055800DB11DC11D8A4B3EF02F0B5EF02F01BEF0A
:1005680002F0D0BFC2EF02F0D05106E1CF05D8B0FB
:10057800C0EF02F0C2EF02F01BEF02F0D2BFCDEFE6
:1005880002F0D25108E1D105D8A0CDEF02F0CFEFAB
:1005980002F0D6EF02F04BB2D4EF02F0D6EF02F041
:1005A8001BEF02F0D351D411D8A4DDEF02F0DFEF36
:1005B80002F0E6EF02F04BA4E4EF02F0E6EF02F0FF
:1005C80004EF03F0DD07D8A0DE07D351D411D8A477
:1005D800F0EF02F0F2EF02F0F8EF02F0000ECE6F4B
:1005E8002B0ECD6FFCEF02F0000ECE6F2D0ECD6FEF
:1005F800AD0EDD25D96E000EDE21DA6ECDC0DFFF2F
:1006080029C01EF02AC01FF0AD0EDD25206E000E99
:10061800DE21216ED1C022F0D2C023F092EC06F088
:100628001EC029F01FC02AF012003DC0D9FF3EC0ED
:10063800DAFFDECFF6FFDDCFF7FFF86A0800F550E6
:10064800250AD8A42AEF03F02CEF03F016EF04F0E4
:100658003DC0D9FF3EC0DAFFDE2A000EDD22000EC3
:10066800486E000E476E47C04BF048C04CF04968D2
:100678004A683DC0D9FF3EC0DAFFDECFF6FFDDCFC6
:10068800F7FFF86A0800F550630AD8A44EEF03F0A4
:1006980050EF03F078EF03F03DC0D9FF3EC0DAFF1A
:1006A800DE2A000EDD223FC0D9FF40C0DAFFDFCFCF
:1006B80041F0020EDE26DFCF42F0000EDD2241C0FF
:1006C800D9FF42C0DAFFDF500001E76F3BC017F0E7
:1006D8003CC018F0E7C019F028EC06F017C03BF052
:1006E80018C03CF032EF04F03DC0D9FF3EC0DAFF3D
:1006F800DECFF6FFDDCFF7FFF86A0800F550640A91
:10070800D8B489EF03F08BEF03F09EEF03F03DC000
:10071800D9FF3EC0DAFFDECFF6FFDDCFF7FFF86A7C
:100728000800F550690AD8A49CEF03F09EEF03F087
:10073800DFEF03F03DC0D9FF3EC0DAFFDE2A000E2E
:10074800DD223FC0D9FF40C0DAFFDFCF41F0020E03
:10075800DE26DFCF42F0000EDD2241C0D9FF42C0C5
:10076800DAFFDECFDFF0DDCFE0F00001000EE0BF02
:10077800FF0EE16FE26FE36FE46FE56FE66F3BC07A
:1007880029F03CC02AF0DFC02BF0E0C02CF0E1C01B
:100798002DF0E2C02EF0E3C02FF0E4C030F0E5C049
:1007A80031F0E6C032F0A8EC01F029C03BF02AC0D5
:1007B8003CF032EF04F03DC0D9FF3EC0DAFFDECF97
:1007C800F6FFDDCFF7FFF86A0800F550250AD8A430
:1007D800F0EF03F0F2EF03F009EF04F03DC0D9FFAA
:1007E8003EC0DAFFDE2A000EDD22000E0F6E250E57
:1007F8000E6E3BC010F03CC011F0F3EC06F0000E9A
:100808003C6E010E3B6E32EF04F03DC0D9FF3EC096
:10081800DAFFDE2A000EDD22000E3C6E000E3B6E73
:1008280032EF04F03DC0D9FF3EC0DAFFDECFF6FF5D
:10083800DDCFF7FFF86A0800F5500E6E0F6A3BC06F
:1008480010F03CC011F0F3EC06F03DC0D9FF3EC0FB
:10085800DAFFDE2A000EDD2203EF04F01200000E9C
:100868001D6E1BBE3CEF04F03AEF04F04EEF04F0AF
:100878001B1E1A1E191E181E171E161E151E146C76
:10088800000E152216221722182219221A221B22BC
:10089800010E1D6E13BE55EF04F053EF04F067EF21
:1008A80004F0131E121E111E101E0F1E0E1E0D1E0A
:1008B8000C6C000E0D220E220F2210221122122281
:1008C8001322010E1D1A20EE1EF0070EDE6AE8063E
:1008D800FDE21450151016101710181019101A10E0
:1008E8001B10D8B47AEF04F07CEF04F0CEEF04F0DC
:1008F800010E1C6E8AEF04F0D890143615361636A1
:100908001736183619361A361B361C2A1BAE8FEFC7
:1009180004F091EF04F080EF04F0D8901E361F36F3
:1009280020362136223623362436253614500C5CE0
:1009380015500D5816500E5817500F58185010587B
:10094800195011581A5012581B501358D8A0AFEF0D
:1009580004F0B1EF04F0C2EF04F014500C5E15502F
:100968000D5A16500E5A17500F5A1850105A19503F
:10097800115A1A50125A1B50135A1E80D8901B3203
:100988001A321932183217321632153214321C2E16
:1009980091EF04F01D50D8B4D4EF04F0D6EF04F072
:1009A800E6EF04F0251E241E231E221E211E201EF3
:1009B8001F1E1E6C000E1F2220222122222223220B
:1009C800242225221EC00CF01FC00DF020C00EF0FE
:1009D80021C00FF022C010F023C011F024C012F083
:1009E80025C013F01200000E1D6E13BE00EF05F0B7
:1009F800FEEF04F012EF05F0131E121E111E101E5A
:100A08000F1E0E1E0D1E0C6C000E0D220E220F2244
:100A18001022112212221322010E1D6E1BBE19EF85
:100A280005F017EF05F029EF05F01B1E1A1E191E19
:100A3800181E171E161E151E146C000E15221622DF
:100A48001722182219221A221B22145015101610C8
:100A58001710181019101A101B10D8B436EF05F01B
:100A680038EF05F080EF05F0010E1C6E46EF05F03B
:100A7800D8901436153616361736183619361A36EB
:100A88001B361C2A1BAE4BEF05F04DEF05F03CEF73
:100A980005F014500C5C15500D5816500E58175090
:100AA8000F5818501058195011581A5012581B50F6
:100AB8001358D8A062EF05F064EF05F074EF05F065
:100AC80014500C5E15500D5A16500E5A17500F5AE6
:100AD8001850105A1950115A1A50125A1B50135ABA
:100AE800D8901B321A321932183217321632153290
:100AF80014321C2E4DEF05F01D50D8B486EF05F0CA
:100B080088EF05F098EF05F0131E121E111E101E37
:100B18000F1E0E1E0D1E0C6C000E0D220E220F2233
:100B280010221122122213220CC00CF00DC00DF05D
:100B38000EC00EF00FC00FF010C010F011C011F071
:100B480012C012F013C013F01200C4CF07F0C28213
:100B58000EEF06F05250D8B4B4EF05F0B6EF05F03A
:100B680027EF06F0010E516E000E506E000E526E09
:100B780027EF06F00750036E046A800E0001FB257C
:100B8800056E000EFC21066E0350055C04500658E5
:100B9800D8A0D1EF05F0D3EF05F027EF06F0800ECF
:100BA800036E000E046EFB51035EFC51045A07509D
:100BB800056E066A0350055C04500658D8A0E7EF96
:100BC80005F0E9EF05F027EF06F0600E5024D96E26
:100BD800DA6A000EDA2207C0DFFF502A020E516ED1
:100BE80027EF06F0600E5024D96EDA6A000EDA227A
:100BF80007C0DFFF502A3F0E506405EF06F007EFED
:100C080006F027EF06F0010E0001AC6F000E516EE2
:100C180027EF06F05150036E046A0450000AD8B456
:100C280018EF06F027EF06F00350000AD8B4AEEF2D
:100C380005F0010AD8B4BEEF05F0030AD8B4F6EF00
:100C480005F027EF06F0120047504810D8A42FEF00
:100C580006F031EF06F037EF06F047C01DF048C048
:100C68001EF03DEF06F0FF0E47241D6EFF0E4820D4
:100C78001E6E4BA042EF06F044EF06F04DEF06F073
:100C880019C00EF00F6A17C010F018C011F0F3EC7D
:100C980006F01EBE52EF06F054EF06F056EF06F0CF
:100CA8005AEF06F0000E1E6E000E1D6E000E1C6E32
:100CB800000E1B6E6CEF06F0000E0F6E200E0E6E0F
:100CC80017C010F018C011F0F3EC06F01B4A1C2AEC
:100CD8001D501B5C1C50800A1A6E1E50800A1A5840
:100CE800D8A079EF06F07BEF06F060EF06F04BB086
:100CF80080EF06F082EF06F08BEF06F019C00EF0D9
:100D08000F6A17C010F018C011F0F3EC06F0010ECE
:100D18001B24176E000E1C20186E12004BA097EFB4
:100D280006F099EF06F0A3EF06F020C017F021C0F7
:100D380018F01EC019F01FC01AF070EC07F023BE9F
:100D4800A8EF06F0AAEF06F0B0EF06F022C027F0F1
:100D580023C028F0B4EF06F0000E286E000E276EB0
:100D6800000E266E000E256EC6EF06F0000E0F6E02
:100D7800200E0E6E1EC010F01FC011F0F3EC06F02E
:100D8800254A262A2750255C2650800A246E28509A
:100D9800800A2458D8A0D3EF06F0D5EF06F0BAEFB2
:100DA80006F04BB0DAEF06F0DCEF06F0E6EF06F0FF
:100DB80020C017F021C018F01EC019F01FC01AF08B
:100DC80070EC07F020C00CF021C00DF00AEC08F020
:100DD80027500C241E6E28500D201F6E1200105034
:100DE8001110D8B4FAEF06F0FCEF06F005EF07F0A3
:100DF80010501110D8A403EF07F005EF07F00AEF21
:100E080007F00E50B9EC08F03DEF07F020EE04F0C3
:100E18001050D9261150DA22DE50DE10D8B417EF60
:100E280007F019EF07F034EF07F020EE04F0105048
:100E3800D9261150DA2210EE02F01050E126115096
:100E4800E222DE50E65CE650800A166EDE50800A2A
:100E58001658D8B032EF07F034EF07F03DEF07F03F
:100E680020EE02F01050D9261150DA22DE2A000EA8
:100E7800DD221200EAC043F0EBC044F0000E00018E
:100E8800A16F000EA06F5CEF07F0E8C03BF0E9C06F
:100E98003CF0430E3D6E000E3E6EECC03FF0EDC0E0
:100EA80040F019EC03F03B500001A0273C50A1236F
:100EB80043C0F6FF44C0F7FFF86A0800F550000980
:100EC800D8A469EF07F06BEF07F049EF07F0A0C06F
:100ED800E8F0A1C0E9F01200000E1D6E000E1C6EB5
:100EE80081EF07F01BC00EF00F6A19C010F01AC08E
:100EF80011F0F3EC06F01C4A1D2A1C501724D96E79
:100F08001D501820DA6EDF501B6E1B50D8A48FEFCF
:100F180007F091EF07F076EF07F012001FBE9FEF82
:100F280007F01F5006E11E04D8B09DEF07F09FEFB1
:100F380007F0ADEF07F01EC020F01FC021F0201E03
:100F4800211E204A212A20C01EF021C01FF0B1EF27
:100F580007F01EC01EF01FC01FF01200080EB86E6A
:100F6800900EAB6E240EAC6E820EAF6E060EB06E97
:100F7800000E0C6E000E0D6ECDEC08F0000E0C6E1F
:100F8800000E0D6EC8EC08F0000E0C6E000E0D6E13
:100F9800D2EC08F0000E4F6E1200BC0EF66E110E69
:100FA800F76E000EF86E0900F5CFFBF00900F5CFDB
:100FB800FCF000EE60F06D0EEE6AE806FDE100EE72
:100FC80047F00C0EEE6AE806FDE1539053920001DB
:100FD80029EF00F0F2944E50D76E4DC0D6FF0001B5
:100FE800AA51AB11D8B4FBEF07F0FDEF07F009EFFA
:100FF80008F002D809EF08F00500FA6EAA51FD6E54
:10100800AB51FE6EFF6AFA50120012000CC00EF0CF
:101018000DC00FF012EF08F00C4A0D2A0CC0D9FFD2
:101028000DC0DAFFDF50D8A41CEF08F01EEF08F05F
:1010380010EF08F00E500C5C0C6E0F500D580D6E32
:101048001200D59C000ED76E000ED66ED650D7CFA4
:101058000EF00F6A0EC00FF00E6A0E104D6E0F5094
:101068004E6EF294F28ABE0E0C6E110E0D6EC3EC2B
:1010780008F09F0ED56E1200000E896E000E8A6E63
:10108800000E8B6EBF0E926E9368BF0E946E3C0E70
:101098000F013A6F3F0E396F2F0E386F000E616ED9
:1010A800F18E1200F00E0001F66F000EF76F000EC1
:1010B800E86F000EE96FEEC0EAF0EFC0EBF0F60E55
:1010C800EC6F000EED6F3EEC07F012009EAA6FEF7A
:1010D80008F071EF08F06AEF08F0000E4F6EABA24F
:1010E80078EF08F07AEF08F07CEF08F0AB98AB885F
:1010F800AE501200700ED36E040ED26E400E9B6E70
:10110800D2AE89EF08F08BEF08F084EF08F01200F8
:10111800DCEC08F040EC08F07EEC08F0A4EC08F0F9
:1011280025EC08F0B2EC07F012000C6E9EA89FEFB9
:1011380008F0A1EF08F09AEF08F00CC0ADFF12001C
:10114800000EC16E260EC06E000EC36E000EC46E79
:10115800110EC26E12009EBAB4EF08F0B7EF08F095
:10116800010EB8EF08F0000E12000D6E0D5099EC4C
:1011780008F012000D50D76E0CC0D6FF12000CC03C
:10118800AAF00DC0ABF012000CC0A4F00DC0A5F081
:1011980012000CC0A6F00DC0A7F012000CC0A2F0FF
:1011A8000DC0A3F012000250D76E01C0D6FF120086
:0811B800D09E12000A00120093
:10FE780000663A20676174686572203531322073F4
:10FE8800616D706C65732066726F6D207468652093
:10FE98006D6963726F70686F6E6520616E64206350
:10FEA800616C63756C617465207468652066726541
:10FEB8007175656E63790D0A00546865206C61730D
:10FEC8007420323536204144432073616D706C656F
:10FED800732066726F6D20746865206D6963726F38
:10FEE80070686F6E65206172653A200D0A00542FA4
:10FEF800743A20496E6372656173652F6465637235
:10FF080065617365207468726573686F6C6420310D
:10FF180033382D3131380D0A002D2D2D2D2D2D2D55
:10FF28002D2D2D2D2D2D2D2D2D2D2D2D2D2D2D2DF9
:10FF38002D2D2D2D2D2D2D0D0A004D6963726F70FD
:10FF4800686F6E65206578706572696D656E74732B
:10FF58000D0A00566F6C756D652072616E67653AA3
:10FF6800202564202D2025640D0A007A3A20436C50
:10FF780065617220746865207465726D696E616C64
:10FF88000D0A005468726573686F6C642061742090
:10FF98006D696E696D756D0D0A005A3A2052657368
:10FFA80065742070726F636573736F720D0A005504
:10FFB8006E6B6E6F776E206B65792025630D0A0076
:10FFC8003F3A2048656C70206D656E750D0A0069B2
:10FFD8006E4C61622030380D0A0044657627323154
:10FFE8000D0A006F3A206B0D0A00206B0D0A3E00C7
:08FFF800256420003E200000FA
:020000040020DA
:08000000FFFFFFFFFFFFFFFF00
:020000040030CA
:0E000000FF281F3CFFBF85FF0FC00FE00F4021
:00000001FF
