:020000040000FA
:0400000027EF00F0F6
:100008004B82FACF10F0FBCF11F0D9CF12F0DACF34
:1000180013F0F2AA12EF00F014EF00F01DEF00F059
:10002800F2A419EF00F01BEF00F01DEF00F09EECBA
:1000380008F013C0DAFF12C0D9FF11C0FBFF10C0CF
:10004800FAFF4B921100E4EF07F014EC09F0000EF0
:10005800156E000E146E46EC09F0F294F2A437EF18
:1000680000F039EF00F032EF00F03A0E146E0C0E8B
:10007800156E4BEC09F0F28EF28CCE0E0001976FE4
:10008800FF0E986FCFEC08F0390E0001976FFF0E46
:10009800986FCFEC08F0D90E0001976FFF0E986F9C
:1000A800CFEC08F0FC0E0001976FFF0E986FCFECB5
:1000B80008F0C282C2B263EF00F065EF00F05EEFB5
:1000C80000F00001A751D8B46CEF00F06EEF00F01B
:1000D80009EF01F0000EA76F830E976FFE0E986F61
:1000E800CFEC08F0000E0101446F44C1A1F00F0EDF
:1000F8000001A117D8A483EF00F085EF00F08EEF80
:1001080000F0E20E976FFF0E986F44C199F09A6B5A
:10011800CFEC08F0F80E0001976FFF0E986F460EAF
:1001280001014425D96EDA6A010EDA22DF50000196
:10013800A16FA151996F9A6BCFEC08F00101442B84
:100148003F0E4465AAEF00F0ACEF00F079EF00F045
:10015800B80E0001976FFE0E986FCFEC08F0000EF6
:100168000101416F010E456F450E4525D96EDA6ACA
:10017800010EDA22810EDF60C4EF00F0C6EF00F056
:10018800DDEF00F0460E4525D96EDA6A010EDA2257
:10019800800EDF64D2EF00F0D4EF00F0DDEF00F066
:1001A800000E4125D96EDA6A010EDA224505DF6EA6
:1001B800412B452B3F0E4565E4EF00F0E6EF00F0DC
:1001C800B8EF00F0000E426F00EF01F0F80E0001EA
:1001D800976FFF0E986F000E01014225D96EDA6AFB
:1001E800010EDA22DF500001A16FA151996F9A6BBD
:1001F800CFEC08F00101422B4151425DD8A007EF36
:1002080001F009EF01F0EAEF00F037EC09F000091E
:10021800D8B411EF01F013EF01F065EF00F0E3EC53
:1002280008F00101406FF0EF01F0180E976FFF0E14
:10023800986FCFEC08F0BF0E0001976FFF0E986F14
:10024800CFEC08F0EB0E0001976FFF0E986FCFEC24
:1002580008F0990E0001976FFF0E986FCFEC08F029
:100268006A0E0001976FFF0E986FCFEC08F0ED0E45
:100278000001976FFE0E986FCFEC08F03B0E00015F
:10028800976FFE0E986FCFEC08F0180E0001976F6D
:10029800FF0E986FCFEC08F065EF00F0F20E976F45
:1002A800FF0E986FCFEC08F065EF00F0000E01012B
:1002B800436FB60E0001976FFE0E986FCFEC08F0F3
:1002C8000101432B270E43656CEF01F06EEF01F03F
:1002D8005DEF01F0FF0065EF00F0000E0101436FD4
:1002E800F50E0001976FFF0E986FCFEC08F0010133
:1002F800432B270E436583EF01F085EF01F074EF80
:1003080001F065EF00F0050EC827000EC923520E54
:10031800976FFF0E986FC8518008996FC951D8A080
:10032800E82A00089A6F800EC8259B6F000EC92125
:100338009C6FCFEC08F065EF00F0C851C911D8B434
:10034800A8EF01F0AAEF01F0C4EF01F0050EC85FB5
:10035800000EC95B520E976FFF0E986FC851800848
:10036800996FC951D8A0E82A00089A6F800EC8254D
:100378009B6F000EC9219C6FCFEC08F065EF00F071
:10038800520E976FFF0E986FC8518008996FC95128
:10039800D8A0E82A00089A6F800EC8259B6F000E27
:1003A800C9219C6FCFEC08F0820E0001976FFF0EF9
:1003B800986FCFEC08F065EF00F0010E4A6E65EF1C
:1003C80000F0AE0E976FFF0E986F40C199F09A6BD0
:1003D800CFEC08F065EF00F040510001A16FA26B6F
:1003E800A251000AD8B4FBEF01F0E5EF01F0A151EA
:1003F8003F0AD8B419EF01F06B0AD8B487EF01F0BF
:100408000E0AD8B45AEF01F03C0AD8B4E1EF01F073
:10041800090AD8B452EF01F01B0AD8B4A1EF01F0D1
:100428000E0AD8B471EF01F0E5EF01F027EF00F004
:1004380062C07AF063C07BF064C07CF065C07DF078
:1004480066C07EF067C07FF068C080F069C081F048
:10045800000181BF32EF02F035EF02F0010E36EFF6
:1004680002F0000E786F796B78517911D8B43FEFAC
:1004780002F041EF02F051EF02F0811F801F7F1F51
:100488007E1F7D1F7C1F7B1F7A6D000E7B237C23C4
:100498007D237E237F23802381233ABE56EF02F0FB
:1004A80058EF02F059EF02F03B923ABE66EF02F0C5
:1004B8003A5006E13904D8B064EF02F066EF02F072
:1004C8006CEF02F0000E756F010E746F70EF02F0A2
:1004D80039C074F03AC075F037C076F038C077F09C
:1004E80078517911D8A47BEF02F07DEF02F084EF08
:1004F80002F03BA482EF02F084EF02F087EF02F0F3
:100508007607D8A07707000E836F1F0E826F000E44
:10051800C76F0CEF03F08207D8A08307A80E8225C7
:10052800D96E000E8321DA6E7AC014F07BC015F004
:100538007CC016F07DC017F07EC018F07FC019F09F
:1005480080C01AF081C01BF00A0E1C6E000E1D6ED2
:10055800000E1E6E000E1F6E000E206E000E216E25
:10056800000E226E000E236E6BEC05F014C06AF0CC
:1005780015C06BF016C06CF017C06DF018C06EF0A7
:1005880019C06FF01AC070F01BC071F06AC026F075
:100598006CC027F029EC08F02650300FDF6E000100
:1005A8007407D8A075077607D8A077077AC014F023
:1005B8007BC015F07CC016F07DC017F07EC018F027
:1005C8007FC019F080C01AF081C01BF00A0E1C6EA3
:1005D800000E1D6E000E1E6E000E1F6E000E206EA9
:1005E800000E216E000E226E000E236EA7EC04F0A2
:1005F80014C07AF015C07BF016C07CF017C07DF0EF
:1006080018C07EF019C07FF01AC080F01BC081F0BE
:10061800000183BF18EF03F0835108E18205D8A0D9
:1006280018EF03F01AEF03F04AEF03F07A517B1149
:100638007C117D117E117F1180118111D8A427EFC3
:1006480003F029EF03F08FEF02F075BF36EF03F0E8
:10065800755106E17405D8B034EF03F036EF03F0B6
:100668008FEF02F077BF41EF03F0775108E176058D
:10067800D8A041EF03F043EF03F04AEF03F03BB299
:1006880048EF03F04AEF03F08FEF02F07851791149
:10069800D8A451EF03F053EF03F05AEF03F03BA453
:1006A80058EF03F05AEF03F078EF03F08207D8A071
:1006B800830778517911D8A464EF03F066EF03F04B
:1006C8006CEF03F0000E736F2B0E726F70EF03F078
:1006D800000E736F2D0E726FA80E8225D96E000E54
:1006E8008321DA6E72C0DFFF60C026F061C027F098
:1006F800A80E8225286E000E8321296E76C02AF066
:1007080077C02BF006EC07F026C060F027C061F038
:10071800120033C0D9FF34C0DAFFDECFF6FFDDCFD9
:10072800F7FFF86A0800F550250AD8A49EEF03F0F1
:10073800A0EF03F08AEF04F033C0D9FF34C0DAFF2A
:10074800DE2A000EDD22000E386E000E376E37C02E
:100758003BF038C03CF039683A6833C0D9FF34C040
:10076800DAFFDECFF6FFDDCFF7FFF86A0800F550B5
:10077800630AD8A4C2EF03F0C4EF03F0ECEF03F070
:1007880033C0D9FF34C0DAFFDE2A000EDD2235C0BF
:10079800D9FF36C0DAFFDFCF84F0020EDE26DFCFC6
:1007A80085F0000EDD2284C0D9FF85C0DAFFDF5056
:1007B80000018E6F31C01FF032C020F08EC021F0D2
:1007C8009CEC06F01FC031F020C032F0A6EF04F018
:1007D80033C0D9FF34C0DAFFDECFF6FFDDCFF7FF35
:1007E800F86A0800F550640AD8B4FDEF03F0FFEF8B
:1007F80003F012EF04F033C0D9FF34C0DAFFDECFC4
:10080800F6FFDDCFF7FFF86A0800F550690AD8A4AB
:1008180010EF04F012EF04F053EF04F033C0D9FFE7
:1008280034C0DAFFDE2A000EDD2235C0D9FF36C01B
:10083800DAFFDFCF84F0020EDE26DFCF85F0000E70
:10084800DD2284C0D9FF85C0DAFFDECF86F0DDCF98
:1008580087F00001000E87BFFF0E886F896F8A6FCF
:100868008B6F8C6F8D6F31C060F032C061F086C0C5
:1008780062F087C063F088C064F089C065F08AC000
:1008880066F08BC067F08CC068F08DC069F01CEC16
:1008980002F060C031F061C032F0A6EF04F033C05E
:1008A800D9FF34C0DAFFDECFF6FFDDCFF7FFF86AF5
:1008B8000800F550250AD8A464EF04F066EF04F0A8
:1008C8007DEF04F033C0D9FF34C0DAFFDE2A000E12
:1008D800DD22000E176E250E166E31C018F032C0DC
:1008E80019F067EC07F0000E326E010E316EA6EFBC
:1008F80004F033C0D9FF34C0DAFFDE2A000EDD224F
:10090800000E326E000E316EA6EF04F033C0D9FF30
:1009180034C0DAFFDECFF6FFDDCFF7FFF86A080054
:10092800F550166E176A31C018F032C019F067EC2E
:1009380007F033C0D9FF34C0DAFFDE2A000EDD220B
:1009480077EF04F01200000E256E23BEB0EF04F01E
:10095800AEEF04F0C2EF04F0231E221E211E201E5B
:100968001F1E1E1E1D1E1C6C000E1D221E221F2275
:100978002022212222222322010E256E1BBEC9EF2E
:1009880004F0C7EF04F0DBEF04F01B1E1A1E191E5B
:10099800181E171E161E151E146C000E1522162280
:1009A8001722182219221A221B22010E251A20EEBC
:1009B80026F0070EDE6AE806FDE21C501D101E1028
:1009C8001F102010211022102310D8B4EEEF04F0CD
:1009D800F0EF04F042EF05F0010E246EFEEF04F094
:1009E800D8901C361D361E361F3620362136223644
:1009F8002336242A23AE03EF05F005EF05F0F4EFC4
:100A080004F0D89026362736283629362A362B364B
:100A18002C362D361C50145C1D5015581E50165877
:100A28001F501758205018582150195822501A583A
:100A380023501B58D8A023EF05F025EF05F036EF1B
:100A480005F01C50145E1D50155A1E50165A1F50A2
:100A5800175A2050185A2150195A22501A5A2350FE
:100A68001B5A2680D89023322232213220321F325C
:100A78001E321D321C32242E05EF05F02550D8B445
:100A880048EF05F04AEF05F05AEF05F02D1E2C1E31
:100A98002B1E2A1E291E281E271E266C000E272202
:100AA800282229222A222B222C222D2226C014F089
:100AB80027C015F028C016F029C017F02AC018F072
:100AC8002BC019F02CC01AF02DC01BF01200000E1C
:100AD800256E1BBE74EF05F072EF05F086EF05F08A
:100AE8001B1E1A1E191E181E171E161E151E146C04
:100AF800000E152216221722182219221A221B224A
:100B0800010E256E23BE8DEF05F08BEF05F09DEFEE
:100B180005F0231E221E211E201E1F1E1E1E1D1E26
:100B28001C6C000E1D221E221F222022212222229E
:100B380023221C501D101E101F10201021102210DF
:100B48002310D8B4AAEF05F0ACEF05F0F4EF05F0E8
:100B5800010E246EBAEF05F0D8901C361D361E36ED
:100B68001F362036213622362336242A23AEBFEFFD
:100B780005F0C1EF05F0B0EF05F01C50145C1D50F6
:100B880015581E5016581F501758205018582150E5
:100B9800195822501A5823501B58D8A0D6EF05F0E0
:100BA800D8EF05F0E8EF05F01C50145E1D50155AFB
:100BB8001E50165A1F50175A2050185A2150195AA9
:100BC80022501A5A23501B5AD890233222322132EB
:100BD80020321F321E321D321C32242EC1EF05F086
:100BE8002550D8B4FAEF05F0FCEF05F00CEF06F04D
:100BF8001B1E1A1E191E181E171E161E151E146CF3
:100C0800000E152216221722182219221A221B2238
:100C180014C014F015C015F016C016F017C017F060
:100C280018C018F019C019F01AC01AF01BC01BF030
:100C38001200C4CF0FF0C28282EF06F04A50D8B437
:100C480028EF06F02AEF06F09BEF06F0010E496E3A
:100C5800000E486E000E4A6E9BEF06F00F500B6EAA
:100C68000C6A800E0001C8250D6E000EC9210E6E9B
:100C78000B500D5C0C500E58D8A045EF06F047EF0E
:100C880006F09BEF06F0800E0B6E000E0C6EC8513E
:100C98000B5EC9510C5A0F500D6E0E6A0B500D5C4D
:100CA8000C500E58D8A05BEF06F05DEF06F09BEFF6
:100CB80006F0460E4824D96EDA6A010EDA220FC011
:100CC800DFFF482A020E496E9BEF06F0460E4824C5
:100CD800D96EDA6A010EDA220FC0DFFF482A3F0E0A
:100CE800486479EF06F07BEF06F09BEF06F0010E03
:100CF8000001A76F000E496E9BEF06F049500B6E7E
:100D08000C6A0C50000AD8B48CEF06F09BEF06F082
:100D18000B50000AD8B422EF06F0010AD8B432EF1B
:100D280006F0030AD8B46AEF06F09BEF06F012004B
:100D380037503810D8A4A3EF06F0A5EF06F0ABEFB4
:100D480006F037C025F038C026F0B1EF06F0FF0EE8
:100D58003724256EFF0E3820266E3BA0B6EF06F02E
:100D6800B8EF06F0C1EF06F021C016F0176A1FC0F1
:100D780018F020C019F067EC07F026BEC6EF06F0A1
:100D8800C8EF06F0CAEF06F0CEEF06F0000E266EAA
:100D9800000E256E000E246E000E236EE0EF06F0A6
:100DA800000E176E200E166E1FC018F020C019F026
:100DB80067EC07F0234A242A2550235C2450800A34
:100DC800226E2650800A2258D8A0EDEF06F0EFEFE9
:100DD80006F0D4EF06F03BB0F4EF06F0F6EF06F0BD
:100DE800FFEF06F021C016F0176A1FC018F020C0E8
:100DF80019F067EC07F0010E23241F6E000E242063
:100E0800206E12003BA00BEF07F00DEF07F017EF75
:100E180007F028C01FF029C020F026C021F027C005
:100E280022F007EC08F02BBE1CEF07F01EEF07F0CE
:100E380024EF07F02AC02FF02BC030F028EF07F07E
:100E4800000E306E000E2F6E000E2E6E000E2D6EF0
:100E58003AEF07F0000E176E200E166E26C018F037
:100E680027C019F067EC07F02D4A2E2A2F502D5C69
:100E78002E50800A2C6E3050800A2C58D8A047EF8C
:100E880007F049EF07F02EEF07F03BB04EEF07F001
:100E980050EF07F05AEF07F028C01FF029C020F0E4
:100EA80026C021F027C022F007EC08F028C014F073
:100EB80029C015F068EC08F02F501424266E305025
:100EC8001520276E120018501910D8B46EEF07F0CD
:100ED80070EF07F079EF07F018501910D8A477EFE2
:100EE80007F079EF07F07EEF07F0165041EC09F0B4
:100EF800B1EF07F020EE04F01850D9261950DA2285
:100F0800DE50DE10D8B48BEF07F08DEF07F0A8EFB6
:100F180007F020EE04F01850D9261950DA2210EE06
:100F280002F01850E1261950E222DE50E65CE65045
:100F3800800A1E6EDE50800A1E58D8B0A6EF07F051
:100F4800A8EF07F0B1EF07F020EE02F01850D9260D
:100F58001950DA22DE2A000EDD22120091C095F027
:100F680092C096F0000E0001A46F000EA36FD0EFA0
:100F780007F08FC031F090C032F0950E336E000E3E
:100F8800346E93C035F094C036F08DEC03F03150D8
:100F98000001A3273250A42395C0F6FF96C0F7FF9F
:100FA800F86A0800F5500009D8A4DDEF07F0DFEF74
:100FB80007F0BDEF07F0A3C08FF0A4C090F01200B7
:100FC800CC0EF66E120EF76E000EF86E0900F5CF15
:100FD800C8F00900F5CFC9F001EE46F0400EEE6A00
:100FE800E806FDE100EEA3F0250EEE6AE806FDE155
:100FF80000EE37F0140EEE6AE806FDE14B904B92D6
:10100800000129EF00F0000E256E000E246E18EF87
:1010180008F023C016F0176A21C018F022C019F092
:1010280067EC07F0244A252A24501F24D96E25503E
:101038002020DA6EDF50236E2350D8A426EF08F064
:1010480028EF08F00DEF08F0120027BE36EF08F081
:10105800275006E12604D8B034EF08F036EF08F040
:1010680044EF08F026C028F027C029F0281E291EC2
:10107800284A292A28C026F029C027F048EF08F076
:1010880026C026F027C027F01200080EB86E900E72
:10109800AB6E240EAC6E820EAF6E060EB06E000EF6
:1010A800146E000E156E55EC09F0000E146E000E4D
:1010B800156E50EC09F0000E146E000E156E5AEC09
:1010C80009F0000E476E120014C016F015C017F094
:1010D80070EF08F0144A152A14C0D9FF15C0DAFFBA
:1010E800DF50D8A47AEF08F07CEF08F06EEF08F034
:1010F8001650145C146E17501558156E1200D59CB6
:10110800000ED76E000ED66ED650D7CF16F0176ADF
:1011180016C017F0166A1610436E1750446EF294F4
:10112800F28ACE0E146E120E156E4BEC09F09F0E5D
:10113800D56E1200F2944450D76E43C0D6FF455086
:101148004610D8B4AAEF08F0ACEF08F0B8EF08F0F2
:1011580002D8B8EF08F00500FA6E4550FD6E46500B
:10116800FE6EFF6AFA5012001200000E896E000E21
:101178008A6E000E8B6EBF0E926E9368BF0E946ED1
:101188003C0E0F013A6F3F0E396F2F0E386F000E6D
:10119800616EF18E1200990E00019F6F000EA06F14
:1011A800000E8F6F000E906F97C091F098C092F06C
:1011B8009F0E936F000E946FB2EC07F012009EAA78
:1011C800E8EF08F0EAEF08F0E3EF08F0000E476EEA
:1011D800ABA2F1EF08F0F3EF08F0F5EF08F0AB98E9
:1011E800AB88AE501200D6CF07F0D7CF08F0085022
:1011F800036E0750056E03C006F005C001F006C077
:1012080002F01200700ED36E040ED26E400E9B6E6A
:10121800D2AE11EF09F013EF09F00CEF09F012004C
:1012280064EC09F0B9EC08F006EC09F02CEC09F0D4
:1012380083EC08F049EC08F01200146E9EA827EF22
:1012480009F029EF09F022EF09F014C0ADFF1200F0
:10125800000EC16E260EC06E000EC36E000EC46E68
:10126800110EC26E12009EBA3CEF09F03FEF09F072
:10127800010E40EF09F0000E1200156E155021EC1A
:1012880009F012001550D76E14C0D6FF120014C012
:1012980045F015C046F0120014C03DF015C03EF0F0
:1012A800120014C03FF015C040F0120014C0A5F0A1
:1012B80015C0A6F012000A50D76E09C0D6FF12005A
:0812C800D09E12000A00120082
:10FE3A0000663A2067617468657220353132207332
:10FE4A00616D706C65732066726F6D2074686520D1
:10FE5A006D6963726F70686F6E6520616E6420638E
:10FE6A00616C63756C61746520746865206672657F
:10FE7A007175656E63790D0A00546865206C61734B
:10FE8A007420323536204144432073616D706C65AD
:10FE9A00732066726F6D20746865206D6963726F76
:10FEAA0070686F6E65206172653A200D0A000D0A4E
:10FEBA0054686520736F756E642077617665206378
:10FECA00726F737365642061742074686520666F4D
:10FEDA006C6C6F77696E6720696E64696365733AE3
:10FEEA000D0A00542F743A20496E63726561736576
:10FEFA002F646563726561736520746872657368DF
:10FF0A006F6C64203133382D3131380D0A002D2DB4
:10FF1A002D2D2D2D2D2D2D2D2D2D2D2D2D2D2D2D07
:10FF2A002D2D2D2D2D2D2D2D2D2D2D2D0D0A004D47
:10FF3A006963726F70686F6E652065787065726943
:10FF4A006D656E74730D0A00566F6C756D6520725F
:10FF5A00616E67653A202564202D2025640D0A000C
:10FF6A007A3A20436C656172207468652074657200
:10FF7A006D696E616C0D0A005468726573686F6C06
:10FF8A0064206174206D696E696D756D0D0A005A81
:10FF9A003A2052657365742070726F636573736F6C
:10FFAA00720D0A00556E6B6E6F776E206B65792045
:10FFBA0025630D0A003F3A2048656C70206D656E16
:10FFCA00750D0A00696E4C61622030380D0A0044D2
:10FFDA0065762732310D0A000D0A535B25645D20D0
:10FFEA00006F3A206B0D0A00206B0D0A3E00256453
:06FFFA0020003E20000083
:020000040020DA
:08000000FFFFFFFFFFFFFFFF00
:020000040030CA
:0E000000FF281F3CFFBF85FF0FC00FE00F4021
:00000001FF
