:020000040000FA
:0400000027EF00F0F6
:100008004D82FACF0FF0FBCF10F0D9CF11F0DACF35
:1000180012F0F2AA12EF00F014EF00F01DEF00F05A
:10002800F2A419EF00F01BEF00F01DEF00F0AEECAA
:100038000AF012C0DAFF11C0D9FF10C0FBFF0FC0D1
:10004800FAFF4D921100F0EF09F037EC0BF0000EBB
:10005800146E000E136E69EC0BF0F294F2A437EFF5
:1000680000F039EF00F032EF00F0AA0E136E0E0E1A
:10007800146E6EEC0BF0F28EF28CCD0E0001916FC7
:10008800FF0E926FDFEC0AF0290E0001916FFF0E50
:10009800926FDFEC0AF0D80E0001916FFF0E926F9D
:1000A800DFEC0AF0FB0E0001916FFF0E926FDFECA0
:1000B8000AF0C282C2B263EF00F065EF00F05EEFB3
:1000C80000F00001C451D8B46CEF00F06EEF00F0FE
:1000D8002EEF02F0000EC46F4D0E916FFE0E926F60
:1000E800010E946F000E936FDFEC0AF0000E000112
:1000F800B56F000EB46F0F0EB4159D6F000EB515D9
:100108009E6F9D519E11D8A48CEF00F08EEF00F0E9
:1001180098EF00F0E10E916FFF0E926FB4C093F06C
:10012800B5C094F0DFEC0AF0F70E0001916FFF0EF6
:10013800926FD890B435D96EB535DA6E000ED926DF
:10014800020EDA22DECF93F0DDCF94F0DFEC0AF076
:100158000001B44BB52BB505D8A0B5EF00F0B7EF4B
:1001680000F07FEF00F0180E916FFE0E926FDFEC3B
:100178000AF0000E0001B76F000EB66F000EB96FDF
:10018800010EB86FD890B835D96EB935DA6EFE0E53
:10019800D926010EDA22010EDB5007E1810EDE5C62
:1001A800D8B0D9EF00F0DBEF00F00BEF01F0D890FA
:1001B800B835D96EB935DA6E000ED926020EDA22B4
:1001C800010EDB5009E1810EDE5CD8A0EEEF00F0F5
:1001D800F0EF00F00BEF01F0FF0E9D6FFF0E9E6F2A
:1001E800B8C09FF0B9C0A0F09D519F279E51A02391
:1001F800D890B635D96EB735DA6E000ED926010E0D
:10020800DA229FC0DEFFA0C0DDFFB64BB72BB84B8C
:10021800B92BB905D8A013EF01F015EF01F0C6EF1F
:1002280000F0000EB16F000EB06F31EF01F0F70E65
:10023800916FFF0E926FD890B035D96EB135DA6EE6
:10024800000ED926010EDA22DECF93F0DDCF94F02E
:10025800DFEC0AF00001B04BB12BB651B05DB751DD
:10026800B159D8A03AEF01F03CEF01F01BEF01F0D3
:10027800AC0E916FFE0E926FB6C093F0B7C094F0BB
:10028800DFEC0AF0000E0001AC6F000EAB6F000E41
:10029800BB6F010EBA6FDAEF01F0AF0E916FFF0E70
:1002A800926FD890BA35D96EBB35DA6E000ED92662
:1002B800010EDA22DECF93F0DDCF94F0FE0E9D6FB3
:1002C800FF0E9E6FBAC09FF0BBC0A0F0D8909F37BA
:1002D800A0379D519F279E51A023000E9F25D96EC0
:1002E800010EA021DA6EDECF95F0DDCF96F0FE0E7E
:1002F800A16FFF0EA26FBAC0A3F0BBC0A4F0D89044
:10030800A337A437A151A327A251A423000EA325E4
:10031800D96E010EA421DA6EDECFA5F0DDCFA6F0EE
:10032800D890BA35D96EBB35DA6E000ED926010ED3
:10033800DA22DECFA7F0DDCFA8F0A551A75D976F31
:10034800A651A859986FDFEC0AF0FE0E00019D6FC8
:10035800FF0E9E6FBAC09FF0BBC0A0F0D8909F3729
:10036800A0379D519F279E51A023000E9F25D96E2F
:10037800010EA021DA6EDECFA1F0DDCFA2F0D89079
:10038800BA35D96EBB35DA6E000ED926010EDA22DF
:10039800DECFA3F0DDCFA4F0A151A35FA251A45BEF
:1003A800A351AB27A451AC23BA4BBB2BB651BA5DB2
:1003B800B751BB59D8A0E3EF01F0E5EF01F051EFD9
:1003C80001F0ABC013F0ACC014F0000E166E190E9D
:1003D800156E07EC0BF013C0A9F014C0AAF0A9C061
:1003E80013F0AAC014F0FF0E0001B625156EFF0E1B
:1003F800B721166E84EC09F013C0ADF014C0AEF04E
:100408000E0E0001916FFF0E926FADC093F0AEC05B
:1004180094F0DFEC0AF0F00E0001916FFE0E926F7F
:10042800400E136E420E146E0F0E156E000E166EF1
:10043800ADC017F0AEC018F0196A1A6AE8EC07F0F8
:1004480013C093F014C094F015C095F016C096F040
:10045800DFEC0AF05AEC0BF00009D8B436EF02F0E2
:1004680038EF02F065EF00F0F3EC0AF00001AF6F2F
:1004780027EF03F0CF0E916FFE0E926FDFEC0AF0BC
:10048800BE0E0001916FFF0E926FDFEC0AF0EA0ECC
:100498000001916FFF0E926FDFEC0AF0890E0001E8
:1004A800916FFF0E926FDFEC0AF05A0E0001916F08
:1004B800FF0E926FDFEC0AF0810E0001916FFE0EC5
:1004C800926FDFEC0AF0D10E0001916FFD0E926F72
:1004D800010E946F000E936FDFEC0AF0CF0E00014F
:1004E800916FFE0E926FDFEC0AF065EF00F0F10EEF
:1004F800916FFF0E926FDFEC0AF065EF00F0000ECF
:10050800B36F000EB26FB35109E1280EB25DD8A0E7
:1005180090EF02F092EF02F094EF02F09FEF02F0FA
:100528007F0E916FFE0E926FDFEC0AF00001B24B66
:10053800B32B87EF02F0FF0065EF00F0000EB36FFA
:10054800000EB26FB35109E1280EB25DD8A0AFEF2B
:1005580002F0B1EF02F0B3EF02F065EF00F0F40E35
:10056800916FFF0E926FDFEC0AF00001B24BB32BD4
:10057800A6EF02F0050EE527000EE623420E916F66
:10058800FF0E926FE5518008936FE651D8A0E82AD4
:100598000008946F800EE525956F000EE621966F92
:1005A800DFEC0AF065EF00F0E551E611D8B4DFEFB3
:1005B80002F0E1EF02F0FBEF02F0050EE55F000E3E
:1005C800E65B420E916FFF0E926FE5518008936FC4
:1005D800E651D8A0E82A0008946F800EE525956FAB
:1005E800000EE621966FDFEC0AF065EF00F0420E90
:1005F800916FFF0E926FE5518008936FE651D8A076
:10060800E82A0008946F800EE525956F000EE62114
:10061800966FDFEC0AF0720E0001916FFF0E926F79
:10062800DFEC0AF065EF00F0010E4C6E65EF00F0AC
:100638009E0E916FFF0E926FAFC093F0946BDFEC3C
:100648000AF065EF00F0AF519D6F9E6B9E51000A56
:10065800D8B431EF03F01CEF03F09D513F0AD8B432
:100668003EEF02F06B0AD8B4BEEF02F00E0AD8B41F
:1006780083EF02F03C0AD8B418EF03F0090AD8B4A3
:100688007BEF02F01B0AD8B4D8EF02F00E0AD8B4F8
:10069800A2EF02F01CEF03F027EF00F032C070F079
:1006A80033C071F034C072F035C073F036C074F0E6
:1006B80037C075F038C076F039C077F0000177BFE1
:1006C80068EF03F06BEF03F0010E6CEF03F0000E20
:1006D8006E6F6F6B6E516F11D8B475EF03F077EFD3
:1006E80003F087EF03F0771F761F751F741F731FC2
:1006F800721F711F706D000E712372237323742390
:100708007523762377233FBE8CEF03F08EEF03F03B
:100718008FEF03F040923FBE9CEF03F03F5006E19D
:100728003E04D8B09AEF03F09CEF03F0A2EF03F079
:10073800000E6B6F010E6A6FA6EF03F03EC06AF001
:100748003FC06BF03CC06CF03DC06DF06E516F1156
:10075800D8A4B1EF03F0B3EF03F0BAEF03F040A46D
:10076800B8EF03F0BAEF03F0BDEF03F06C07D8A0C1
:100778006D07000E796F1F0E786F000EE46F42EF61
:1007880004F07807D8A07907C50E7825D96E000E31
:100798007921DA6E70C013F071C014F072C015F0D0
:1007A80073C016F074C017F075C018F076C019F051
:1007B80077C01AF00A0E1B6E000E1C6E000E1D6E1E
:1007C800000E1E6E000E1F6E000E206E000E216EB3
:1007D800000E226EA3EC06F013C060F014C061F0A6
:1007E80015C062F016C063F017C064F018C065F059
:1007F80019C066F01AC067F060C025F062C026F024
:1008080039EC0AF02550300FDF6E00016A07D8A0D6
:100818006B076C07D8A06D0770C013F071C014F097
:1008280072C015F073C016F074C017F075C018F0D8
:1008380076C019F077C01AF00A0E1B6E000E1C6EF7
:10084800000E1D6E000E1E6E000E1F6E000E206E36
:10085800000E216E000E226EDFEC05F013C070F062
:1008680014C071F015C072F016C073F017C074F0A0
:1008780018C075F019C076F01AC077F0000179BF7A
:100888004EEF04F0795108E17805D8A04EEF04F056
:1008980050EF04F080EF04F0705171117211731170
:1008A8007411751176117711D8A45DEF04F05FEF1C
:1008B80004F0C5EF03F06BBF6CEF04F06B5106E179
:1008C8006A05D8B06AEF04F06CEF04F0C5EF03F0E6
:1008D8006DBF77EF04F06D5108E16C05D8A077EF94
:1008E80004F079EF04F080EF04F040B27EEF04F0FA
:1008F80080EF04F0C5EF03F06E516F11D8A487EFB5
:1009080004F089EF04F090EF04F040A48EEF04F0B7
:1009180090EF04F0AEEF04F07807D8A079076E5195
:100928006F11D8A49AEF04F09CEF04F0A2EF04F042
:10093800000E696F2B0E686FA6EF04F0000E696F4A
:100948002D0E686FC50E7825D96E000E7921DA6EE6
:1009580068C0DFFF30C025F031C026F0C50E78250D
:10096800276E000E7921286E6CC029F06DC02AF020
:10097800D8EC08F025C030F026C031F012007CC059
:10098800D9FF7DC0DAFFDECFF6FFDDCFF7FFF86ACB
:100998000800F550250AD8A4D4EF04F0D6EF04F0E7
:1009A800C2EF05F07CC0D9FF7DC0DAFFDE2A000E59
:1009B800DD22000E3D6E000E3C6E3CC040F03DC096
:1009C80041F03E683F687CC0D9FF7DC0DAFFDECFCA
:1009D800F6FFDDCFF7FFF86A0800F550630AD8A4E0
:1009E800F8EF04F0FAEF04F022EF05F07CC0D9FF2D
:1009F8007DC0DAFFDE2A000EDD227EC0D9FF7FC06F
:100A0800DAFFDFCF3AF0020EDE26DFCF3BF0000E32
:100A1800DD223AC0D9FF3BC0DAFFDF500001886F02
:100A28007AC01EF07BC01FF088C020F06EEC08F082
:100A38001EC07AF01FC07BF0DEEF05F07CC0D9FF46
:100A48007DC0DAFFDECFF6FFDDCFF7FFF86A0800DA
:100A5800F550640AD8B433EF05F035EF05F048EFE8
:100A680005F07CC0D9FF7DC0DAFFDECFF6FFDDCF11
:100A7800F7FFF86A0800F550690AD8A446EF05F0B0
:100A880048EF05F089EF05F07CC0D9FF7DC0DAFF9B
:100A9800DE2A000EDD227EC0D9FF7FC0DAFFDFCF5D
:100AA8003AF0020EDE26DFCF3BF0000EDD223AC020
:100AB800D9FF3BC0DAFFDECF80F0DDCF81F0000147
:100AC800000E81BFFF0E826F836F846F856F866F04
:100AD800876F7AC030F07BC031F080C032F081C0BF
:100AE80033F082C034F083C035F084C036F085C05E
:100AF80037F086C038F087C039F052EC03F030C0C8
:100B08007AF031C07BF0DEEF05F07CC0D9FF7DC004
:100B1800DAFFDECFF6FFDDCFF7FFF86A0800F55001
:100B2800250AD8A49AEF05F09CEF05F0B4EF05F07C
:100B38007CC0D9FF7DC0DAFFDE2A000EDD22000E60
:100B4800166E250E156E7AC017F07BC018F039ECBA
:100B580009F0000E00017B6F010E7A6FDEEF05F0E1
:100B68007CC0D9FF7DC0DAFFDE2A000EDD22000E30
:100B780000017B6F000E7A6FDEEF05F07CC0D9FFB5
:100B88007DC0DAFFDECFF6FFDDCFF7FFF86A080099
:100B9800F550156E166A7AC017F07BC018F039EC5C
:100BA80009F07CC0D9FF7DC0DAFFDE2A000EDD2205
:100BB800ADEF05F01200000E246E22BEE8EF05F03E
:100BC800E6EF05F0FAEF05F0221E211E201E1F1E7B
:100BD8001E1E1D1E1C1E1B6C000E1C221D221E220A
:100BE8001F22202221222222010E246E1ABE01EF8A
:100BF80006F0FFEF05F013EF06F01A1E191E181E77
:100C0800171E161E151E141E136C000E1422152214
:100C180016221722182219221A22010E241A20EE4F
:100C280025F0070EDE6AE806FDE21B501C101D10B9
:100C38001E101F10201021102210D8B426EF06F025
:100C480028EF06F07AEF06F0010E236E36EF06F075
:100C5800D8901B361C361D361E361F3620362136D8
:100C68002236232A22AE3BEF06F03DEF06F02CEFAA
:100C780006F0D890253626362736283629362A36DD
:100C88002B362C361B50135C1C5014581D5015580D
:100C98001E5016581F5017582050185821501958D0
:100CA80022501A58D8A05BEF06F05DEF06F06EEF01
:100CB80006F01B50135E1C50145A1D50155A1E5036
:100CC800165A1F50175A2050185A2150195A225094
:100CD8001A5A2580D8902232213220321F321E32F1
:100CE8001D321C321B32232E3DEF06F02450D8B49F
:100CF80080EF06F082EF06F092EF06F02C1E2B1E16
:100D08002A1E291E281E271E261E256C000E262296
:100D18002722282229222A222B222C2225C013F01E
:100D280026C014F027C015F028C016F029C017F007
:100D38002AC018F02BC019F02CC01AF01200000EAF
:100D4800246E1ABEACEF06F0AAEF06F0BEEF06F06E
:100D58001A1E191E181E171E161E151E141E136C99
:100D6800000E1422152216221722182219221A22DE
:100D7800010E246E22BEC5EF06F0C3EF06F0D5EFD4
:100D880006F0221E211E201E1F1E1E1E1D1E1C1EBA
:100D98001B6C000E1C221D221E221F222022212233
:100DA80022221B501C101D101E101F102010211075
:100DB8002210D8B4E2EF06F0E4EF06F02CEF07F0CB
:100DC800010E236EF2EF06F0D8901B361C361D3646
:100DD8001E361F36203621362236232A22AEF7EF5A
:100DE80006F0F9EF06F0E8EF06F01B50135C1C5014
:100DF80014581D5015581E5016581F50175820507B
:100E080018582150195822501A58D8A00EEF07F038
:100E180010EF07F020EF07F01B50135E1C50145A18
:100E28001D50155A1E50165A1F50175A2050185A3E
:100E38002150195A22501A5AD8902232213220327F
:100E48001F321E321D321C321B32232EF9EF06F0E0
:100E58002450D8B432EF07F034EF07F044EF07F02E
:100E68001A1E191E181E171E161E151E141E136C88
:100E7800000E1422152216221722182219221A22CD
:100E880013C013F014C014F015C015F016C016F0F6
:100E980017C017F018C018F019C019F01AC01AF0C6
:100EA8001200C4CF0DF00E6AC282C3EF07F04C5097
:100EB800D8B461EF07F063EF07F0DCEF07F0010E3D
:100EC8004B6E000E496E000E486E000E4C6EDCEF45
:100ED80007F0800E0001E5250B6E000EE6210C6E72
:100EE8000B500D5C0C500E58D8B07DEF07F07FEF1B
:100EF80007F092EF07F0800E0B6E000E0C6EE551B6
:100F08000B5EE6510C5A0D500B5C0E500C58D8A0D5
:100F180090EF07F092EF07F0DCEF07F0D890483435
:100F2800D96E4934DA6E000ED926020EDA220DC0C7
:100F3800DEFF0EC0DDFF484A492A020E4B6EDCEF89
:100F480007F0D8904834D96E4934DA6E000ED926A5
:100F5800020EDA220DC0DEFF0EC0DDFF484A492A24
:100F68004904D8A0BAEF07F0BCEF07F0DCEF07F0B0
:100F7800010E0001C46F000E4B6EDCEF07F04B5002
:100F88000B6E0C6A0C50000AD8B4CDEF07F0DCEFFA
:100F980007F00B50000AD8B45BEF07F0010AD8B489
:100FA8006DEF07F0030AD8B4A5EF07F0DCEF07F000
:100FB800F2941AEC0BF0A20E0124096EFE0E022028
:100FC8000A6E82EC0BF01200000E1C6E1ABEF1EFD6
:100FD80007F0EFEF07F0FBEF07F01A1E191E181EB7
:100FE800176C000E182219221A22010E1C6E16BE4A
:100FF80002EF08F000EF08F00CEF08F0161E151EBF
:10100800141E136C000E142215221622010E1C1A2F
:10101800000E1D6E000E1E6E000E1F6E000E206E5E
:101028001750181019101A10D8B41DEF08F01FEF38
:1010380008F055EF08F0010E1B6E29EF08F0D89064
:101048001736183619361A361B2A1AAE2EEF08F03C
:1010580030EF08F023EF08F0D8901D361E361F3603
:1010680020361750135C18501458195015581A5038
:101078001658D8A042EF08F044EF08F04DEF08F0FA
:101088001750135E1850145A1950155A1A50165AF8
:101098001D80D8901A321932183217321B2E30EFB1
:1010A80008F01C50D8B45BEF08F05DEF08F065EF6E
:1010B80008F0201E1F1E1E1E1D6C000E1E221F2261
:1010C80020221DC013F01EC014F01FC015F020C050
:1010D80016F012003C503D10D8A475EF08F077EFD9
:1010E80008F07DEF08F03CC024F03DC025F083EF08
:1010F80008F0FF0E3C24246EFF0E3D20256E40A014
:1011080088EF08F08AEF08F093EF08F020C015F098
:10111800166A1EC017F01FC018F039EC09F025BE7A
:1011280098EF08F09AEF08F09CEF08F0A0EF08F0AD
:10113800000E256E000E246E000E236E000E226E29
:10114800B2EF08F0000E166E200E156E1EC017F0D6
:101158001FC018F039EC09F0224A232A2450225CD7
:101168002350800A216E2550800A2158D8A0BFEF4D
:1011780008F0C1EF08F0A6EF08F040B0C6EF08F09D
:10118800C8EF08F0D1EF08F020C015F0166A1EC0AD
:1011980017F01FC018F039EC09F0010E22241E6E5A
:1011A800000E23201F6E120040A0DDEF08F0DFEFD5
:1011B80008F0E9EF08F027C01EF028C01FF025C08E
:1011C80020F026C021F017EC0AF02ABEEEEF08F056
:1011D800F0EF08F0F6EF08F029C02EF02AC02FF043
:1011E800FAEF08F0000E2F6E000E2E6E000E2D6E18
:1011F800000E2C6E0CEF09F0000E166E200E156E08
:1012080025C017F026C018F039EC09F02C4A2D2A11
:101218002E502C5C2D50800A2B6E2F50800A2B5894
:10122800D8A019EF09F01BEF09F000EF09F040B062
:1012380020EF09F022EF09F02CEF09F027C01EF08B
:1012480028C01FF025C020F026C021F017EC0AF0B6
:1012580027C013F028C014F078EC0AF02E5013249D
:10126800256E2F501420266E120017501810D8B46F
:1012780040EF09F042EF09F04BEF09F01750181052
:10128800D8A449EF09F04BEF09F050EF09F01550D9
:1012980064EC0BF083EF09F020EE04F01750D92628
:1012A8001850DA22DE50DE10D8B45DEF09F05FEF97
:1012B80009F07AEF09F020EE04F01750D9261850FB
:1012C800DA2210EE02F01750E1261850E222DE5022
:1012D800E65CE650800A1D6EDE50800A1D58D8B0C4
:1012E80078EF09F07AEF09F083EF09F020EE02F0C9
:1012F8001750D9261850DA22DE2A000EDD221200F5
:10130800000E196E000E186E15501610D8B48FEF17
:1013180009F091EF09F0B9EF09F0010E176E99EF96
:1013280009F0D89015361636172A16AE9EEF09F032
:10133800A0EF09F095EF09F0D89018361936155036
:10134800135C16501458D8A0ACEF09F0AEEF09F0B2
:10135800B3EF09F01550135E1650145A1880D89040
:1013680016321532172EA0EF09F018C013F019C065
:1013780014F012008BC08FF08CC090F0000E0001AA
:10138800BD6F000EBC6FDCEF09F089C07AF08AC02F
:101398007BF08F0E7C6F000E7D6F8DC07EF08EC04F
:1013A8007FF0C3EC04F000017A51BC277B51BD23C8
:1013B8008FC0F6FF90C0F7FFF86A0800F5500009E3
:1013C800D8A4E9EF09F0EBEF09F0C9EF09F0BCC0C8
:1013D80089F0BDC08AF01200120EF66E170EF76E75
:1013E800000EF86E0900F5CFE5F00900F5CFE6F03C
:1013F80002EE00F012EE00F0EE6AE550E150FCE17A
:10140800E250FAE100EEBCF0290EEE6AE806FDE1D2
:1014180000EE3CF0110EEE6AE806FDE14D904D92AB
:10142800000129EF00F0000E246E000E236E28EF55
:101438000AF022C015F0166A20C017F021C018F073
:1014480039EC09F0234A242A23501E24D96E24504B
:101458001F20DA6EDF50226E2250D8A436EF0AF031
:1014680038EF0AF01DEF0AF0120026BE46EF0AF028
:10147800265006E12504D8B044EF0AF046EF0AF0FA
:1014880054EF0AF025C027F026C028F0271E281E92
:10149800274A282A27C025F028C026F058EF0AF046
:1014A80025C025F026C026F01200080EB86E900E52
:1014B800AB6E240EAC6E820EAF6E060EB06E000ED2
:1014C800136E000E146E78EC0BF0000E136E000E07
:1014D800146E73EC0BF0000E136E000E146E7DECA0
:1014E8000BF0000E4A6E120013C015F014C016F06F
:1014F80080EF0AF0134A142A13C0D9FF14C0DAFF88
:10150800DF50D8A48AEF0AF08CEF0AF07EEF0AF0D9
:101518001550135C136E16501458146E1200D59C97
:10152800000ED76E000ED66ED650D7CF15F0166ABD
:1015380015C016F0156A1510446E1650456EF294D3
:10154800F28A140E136E170E146E6EEC0BF09F0ECB
:10155800D56E1200F2944550D76E44C0D6FF46505F
:101568004710D8B4BAEF0AF0BCEF0AF0C8EF0AF097
:1015780002D8C8EF0AF00500FA6E4650FD6E4750D3
:10158800FE6EFF6AFA5012001200000E896E000EFD
:101598008A6E000E8B6EBF0E926E9368BF0E946EAD
:1015A8003C0E0F013A6F3F0E396F2F0E386F000E49
:1015B800616EF18E1200930E00019B6F000E9C6FFE
:1015C800000E896F000E8A6F91C08BF092C08CF06C
:1015D8009B0E8D6F000E8E6FBEEC09F012009EAA56
:1015E800F8EF0AF0FAEF0AF0F3EF0AF0000E4A6E8D
:1015F800ABA201EF0BF003EF0BF005EF0BF0AB988C
:10160800AB88AE50120013501502F3CF17F0F4CF89
:1016180018F013501602F350182614501502F35000
:10162800182617C013F018C014F01200D6CF07F010
:10163800D7CF08F00850036E0750056E03C006F0B8
:1016480005C001F006C002F01200700ED36E040E41
:10165800D26E400E9B6ED2AE34EF0BF036EF0BF02D
:101668002FEF0BF0120087EC0BF0C9EC0AF029EC15
:101678000BF04FEC0BF093EC0AF059EC0AF0120067
:10168800136E9EA84AEF0BF04CEF0BF045EF0BF0F2
:1016980013C0ADFF1200000EC16E260EC06E000E04
:1016A800C36E000EC46E110EC26E12009EBA5FEFBA
:1016B8000BF062EF0BF0010E63EF0BF0000E12005F
:1016C800146E145044EC0BF012001450D76E13C073
:1016D800D6FF120013C046F014C047F0120013C022
:1016E800C0F014C0C1F0120013C0C2F014C0C3F09F
:1016F800120013C0BEF014C0BFF012000A50D76E1B
:0E17080009C0D6FF1200D09E12000A00120087
:10FDD00000663A206761746865722025642073614B
:10FDE0006D706C65732066726F6D20746865206D30
:10FDF0006963726F70686F6E6520616E6420636105
:10FE00006C63756C617465207468652066726571D9
:10FE100075656E63790D0A000D0A54686520736F6D
:10FE2000756E6420776176652063726F73736564A5
:10FE30002061742074686520666F6C6C6F77696EE2
:10FE40006720696E64696365733A0D0A00546865DA
:10FE5000206C617374202564204144432073616DDC
:10FE6000706C65732066726F6D20746865206D69B3
:10FE700063726F70686F6E65206172653A200D0A5B
:10FE800000542F743A20496E6372656173652F6464
:10FE900065637265617365207468726573686F6C01
:10FEA00064203133382D3131380D0A000D0A546881
:10FEB0006520736F756E6420776176652068616474
:10FEC00020256420706572696F64733A0D0A002DF5
:10FED0002D2D2D2D2D2D2D2D2D2D2D2D2D2D2D2D52
:10FEE0002D2D2D2D2D2D2D2D2D2D2D2D2D0D0A00B2
:10FEF0000D0A617665726167652066726571756568
:10FF00006E6479203D20256420487A0D0A000D0A90
:10FF10006176657261676520706572696F64203D06
:10FF20002025642075730D0A004D6963726F706837
:10FF30006F6E65206578706572696D656E74730D9E
:10FF40000A00566F6C756D652072616E67653A20A8
:10FF50002564202D2025640D0A007A3A20436C6523
:10FF6000617220746865207465726D696E616C0DD4
:10FF70000A005468726573686F6C64206174206D48
:10FF8000696E696D756D0D0A005A3A205265736588
:10FF9000742070726F636573736F720D0A00556E13
:10FFA0006B6E6F776E206B65792025630D0A0025D7
:10FFB00064202D202564203D2025640D0A003F3A51
:10FFC0002048656C70206D656E750D0A00696E4C79
:10FFD00061622030380D0A004465762732310D0AFF
:10FFE000000D0A535B25645D20006F3A206B0D0AFB
:0FFFF00000206B0D0A3E00256420003E2000001B
:020000040020DA
:08000000FFFFFFFFFFFFFFFF00
:020000040030CA
:0E000000FF281F3CFFBF85FF0FC00FE00F4021
:00000001FF
