:020000040000FA
:0400000027EF00F0F6
:100008004C82FACF10F0FBCF11F0D9CF12F0DACF33
:1000180013F0F2AA12EF00F014EF00F01DEF00F059
:10002800F2A419EF00F01BEF00F01DEF00F0E6EC72
:1000380009F013C0DAFF12C0D9FF11C0FBFF10C0CE
:10004800FAFF4C92110026EF09F06FEC0AF0000E4F
:10005800156E000E146EA1EC0AF0F294F2A437EFBC
:1000680000F039EF00F032EF00F0420E146E0E0E81
:10007800156EA6EC0AF0F28EF28CCD0E0001956F8B
:10008800FF0E966F17EC0AF0290E0001956FFF0E10
:10009800966F17EC0AF0D80E0001956FFF0E966F59
:1000A80017EC0AF0FB0E0001956FFF0E966F17EC28
:1000B8000AF0C282C2B263EF00F065EF00F05EEFB3
:1000C80000F001019551D8B46CEF00F06EEF00F02C
:1000D800E2EF01F0000E956F350E0001956FFE0EF0
:1000E800966F17EC0AF0000E01018C6F000E8B6FF3
:1000F8000F0E8B150001A16F000E01018C15000178
:10010800A26FA151A211D8A48CEF00F08EEF00F0DD
:1001180098EF00F0E10E956FFF0E966F8BC197F088
:100128008CC198F017EC0AF0F70E0001956FFF0EDE
:10013800966F000E01018B25D96E020E8C21DA6EA6
:10014800DF500001A16FA151976F986B17EC0AF06F
:1001580001018B4B8C2B8C05D8A0B5EF00F0B7EFC5
:1001680000F07CEF00F06A0E0001956FFE0E966FAE
:1001780017EC0AF0000E01018E6F000E8D6F000E55
:10018800906F010E8F6FFF0E8F25D96E010E902193
:10019800DA6E810EDF60D3EF00F0D5EF00F0EDEFFF
:1001A80000F0000E8F25D96E020E9021DA6E800EB7
:1001B800DF64E1EF00F0E3EF00F0EDEF00F0000E98
:1001C8008D25D96E010E8E21DA6E8F05DF6E8D4B6F
:1001D8008E2B8F4B902B9005D8A0F5EF00F0F7EF02
:1001E80000F0C7EF00F0000E886F000E876F14EF65
:1001F80001F0F70E0001956FFF0E966F000E0101DA
:100208008725D96E010E8821DA6EDF500001A16FB3
:10021800A151976F986B17EC0AF00101874B882B57
:100228008D51875D8E518859D8A01DEF01F01FEFC1
:1002380001F0FDEF00F0CA0E0001956FFE0E966FFB
:100248008DC197F08EC198F017EC0AF0000E0101ED
:10025800856F000E846F000E926F010E916FB0EFE4
:1002680001F0AF0E0001956FFF0E966F000E0101B1
:100278009125D96E010E9221DA6EDF500001A16F2F
:10028800A151976F986BFF0EA26FFF0EA36F91C1DC
:10029800A4F092C1A5F0A251A427A351A523000E52
:1002A800A425D96E010EA521DA6EDF50A66FA651DE
:1002B800996F9A6B000E01019125D96E010E92215A
:1002C800DA6EDF500001A76FFF0EA86FFF0EA96F4F
:1002D80091C1AAF092C1ABF0A851AA27A951AB23AA
:1002E800000EAA25D96E010EAB21DA6EDF50AC6F75
:1002F800AC51A75D9B6F9C6BD8A09C0717EC0AF0CC
:10030800000E01019125D96E010E9221DA6EDF509F
:100318000001A16FA26BFF0EA36FFF0EA46F91C126
:10032800A5F092C1A6F0A351A527A451A623000EBB
:10033800A525D96E010EA621DA6EDF50A76FA75149
:10034800A15F000EA25BA151010184270001A25107
:1003580001018523914B922B8D51915D8E519259BC
:10036800D8A0B9EF01F0BBEF01F035EF01F084C17F
:1003780014F085C115F08DC116F08EC117F0BAECD6
:1003880008F014C080F115C081F180C114F081C15A
:1003980015F0000E176E190E166E3FEC0AF014C019
:1003A80082F115C083F10E0E0001956FFF0E966F56
:1003B80082C197F083C198F017EC0AF092EC0AF02A
:1003C8000009D8B4EAEF01F0ECEF01F065EF00F0B6
:1003D8002BEC0AF00101866FF2EF02F0ED0E956F3B
:1003E800FE0E966F17EC0AF0BE0E0001956FFF0E19
:1003F800966F17EC0AF0EA0E0001956FFF0E966FE4
:1004080017EC0AF0890E0001956FFF0E966F17EC36
:100418000AF05A0E0001956FFF0E966F17EC0AF05E
:100428009F0E0001956FFE0E966F17EC0AF0ED0E09
:100438000001956FFD0E966F17EC0AF0ED0E0001A6
:10044800956FFE0E966F17EC0AF065EF00F0F10E4F
:10045800956FFF0E966F17EC0AF065EF00F0000E2F
:1004680001018A6F000E896F680E0001956FFE0EFC
:10047800966F17EC0AF00101894B8A2B8A5109E122
:10048800280E895DD8A04BEF02F04DEF02F038EF4F
:1004980002F0FF0065EF00F0000E01018A6F000E08
:1004A800896FF40E0001956FFF0E966F17EC0AF036
:1004B8000101894B8A2B8A5109E1280E895DD8A050
:1004C80068EF02F06AEF02F055EF02F065EF00F016
:1004D800050E01019327000E9423420E0001956F2B
:1004E800FF0E966F0101935180080001976F01017B
:1004F8009451D8A0E82A00080001986F800E0101E5
:1005080093250001996F000E0101942100019A6F53
:1005180017EC0AF065EF00F0010193519411D8B47B
:1005280098EF02F09AEF02F0BDEF02F0050E935F2C
:10053800000E945B420E0001956FFF0E966F01014D
:10054800935180080001976F01019451D8A0E82ABF
:1005580000080001986F800E010193250001996F32
:10056800000E0101942100019A6F17EC0AF065EF63
:1005780000F0420E0001956FFF0E966F0101935136
:1005880080080001976F01019451D8A0E82A00085B
:100598000001986F800E010193250001996F000EEC
:1005A8000101942100019A6F17EC0AF0720E000104
:1005B800956FFF0E966F17EC0AF065EF00F0010ECD
:1005C8004B6E65EF00F09E0E956FFF0E966F86C11D
:1005D80097F0986B17EC0AF065EF00F08651000170
:1005E800A16FA26BA251000AD8B4FDEF02F0E7EFA9
:1005F80002F0A1513F0AD8B4F2EF01F06B0AD8B467
:100608006CEF02F00E0AD8B433EF02F03C0AD8B40B
:10061800E3EF02F0090AD8B42BEF02F01B0AD8B4B2
:1006280090EF02F00E0AD8B450EF02F0E7EF02F0B4
:1006380027EF00F062C072F063C073F064C074F01A
:1006480065C075F066C076F067C077F068C078F06E
:1006580069C079F0000179BF34EF03F037EF03F098
:10066800010E38EF03F0000E706F716B705171114D
:10067800D8B441EF03F043EF03F053EF03F0791FD1
:10068800781F771F761F751F741F731F726D000EFA
:1006980073237423752376237723782379233CBE29
:1006A80058EF03F05AEF03F05BEF03F03D923CBEC6
:1006B80068EF03F03C5006E13B04D8B066EF03F066
:1006C80068EF03F06EEF03F0000E6D6F010E6C6FB4
:1006D80072EF03F03BC06CF03CC06DF039C06EF0B7
:1006E8003AC06FF070517111D8A47DEF03F07FEF1D
:1006F80003F086EF03F03DA484EF03F086EF03F0E8
:1007080089EF03F06E07D8A06F07000E7B6F1F0EEE
:100718007A6F000ED26F0EEF04F07A07D8A07B072D
:10072800B30E7A25D96E000E7B21DA6E72C014F0F2
:1007380073C015F074C016F075C017F076C018F0C5
:1007480077C019F078C01AF079C01BF00A0E1C6E39
:10075800000E1D6E000E1E6E000E1F6E000E206E27
:10076800000E216E000E226E000E236E6FEC06F056
:1007780014C031F015C032F016C033F017C034F091
:1007880018C035F019C036F01AC037F01BC038F061
:1007980031C026F033C027F071EC09F02650300F35
:1007A800DF6E00016C07D8A06D076E07D8A06F0731
:1007B80072C014F073C015F074C016F075C017F04D
:1007C80076C018F077C019F078C01AF079C01BF01D
:1007D8000A0E1C6E000E1D6E000E1E6E000E1F6EA1
:1007E800000E206E000E216E000E226E000E236E8B
:1007F800ABEC05F014C072F015C073F016C074F0BD
:1008080017C075F018C076F019C077F01AC078F0E4
:100818001BC079F000017BBF1AEF04F07B5108E19F
:100828007A05D8A01AEF04F01CEF04F04CEF04F09E
:10083800725173117411751176117711781179113C
:10084800D8A429EF04F02BEF04F091EF03F06DBF6B
:1008580038EF04F06D5106E16C05D8B036EF04F0BE
:1008680038EF04F091EF03F06FBF43EF04F06F51DE
:1008780008E16E05D8A043EF04F045EF04F04CEF13
:1008880004F03DB24AEF04F04CEF04F091EF03F0AE
:1008980070517111D8A453EF04F055EF04F05CEFD8
:1008A80004F03DA45AEF04F05CEF04F07AEF04F092
:1008B8007A07D8A07B0770517111D8A466EF04F0AD
:1008C80068EF04F06EEF04F0000E6B6F2B0E6A6F8A
:1008D80072EF04F0000E6B6F2D0E6A6FB30E7A255F
:1008E800D96E000E7B21DA6E6AC0DFFF60C026F089
:1008F80061C027F0B30E7A25286E000E7B21296E81
:100908006EC02AF06FC02BF00EEC08F026C060F025
:1009180027C061F012007EC0D9FF7FC0DAFFDECFAA
:10092800F6FFDDCFF7FFF86A0800F550250AD8A4CE
:10093800A0EF04F0A2EF04F08EEF05F07EC0D9FF1F
:100948007FC0DAFFDE2A000EDD22000E3A6E000EAE
:10095800396E39C03DF03AC03EF03B683C687EC015
:10096800D9FF7FC0DAFFDECFF6FFDDCFF7FFF86AE9
:100978000800F550630AD8A4C4EF04F0C6EF04F0E9
:10098800EEEF04F07EC0D9FF7FC0DAFFDE2A000E4A
:10099800DD2280C0D9FF81C0DAFFDFCF82F0020EEE
:1009A800DE26DFCF83F0000EDD2282C0D9FF83C0B0
:1009B800DAFFDF5000018C6F7CC01FF07DC020F093
:1009C8008CC021F0A4EC07F01FC07CF020C07DF0A3
:1009D800AAEF05F07EC0D9FF7FC0DAFFDECFF6FFB1
:1009E800DDCFF7FFF86A0800F550640AD8B4FFEFC6
:1009F80004F001EF05F014EF05F07EC0D9FF7FC0C9
:100A0800DAFFDECFF6FFDDCFF7FFF86A0800F55012
:100A1800690AD8A412EF05F014EF05F055EF05F0B8
:100A28007EC0D9FF7FC0DAFFDE2A000EDD2280C03B
:100A3800D9FF81C0DAFFDFCF82F0020EDE26DFCFDA
:100A480083F0000EDD2282C0D9FF83C0DAFFDECF3B
:100A580084F0DDCF85F00001000E85BFFF0E866FA4
:100A6800876F886F896F8A6F8B6F7CC060F07DC0DD
:100A780061F084C062F085C063F086C064F087C00E
:100A880065F088C066F089C067F08AC068F08BC0DE
:100A980069F01EEC03F060C07CF061C07DF0AAEF45
:100AA80005F07EC0D9FF7FC0DAFFDECFF6FFDDCFCD
:100AB800F7FFF86A0800F550250AD8A466EF05F094
:100AC80068EF05F080EF05F07EC0D9FF7FC0DAFF40
:100AD800DE2A000EDD22000E176E250E166E7CC073
:100AE80018F07DC019F06FEC08F0000E00017D6F62
:100AF800010E7C6FAAEF05F07EC0D9FF7FC0DAFF38
:100B0800DE2A000EDD22000E00017D6F000E7C6FD4
:100B1800AAEF05F07EC0D9FF7FC0DAFFDECFF6FF6F
:100B2800DDCFF7FFF86A0800F550166E176A7CC02B
:100B380018F07DC019F06FEC08F07EC0D9FF7FC0B7
:100B4800DAFFDE2A000EDD2279EF05F01200000E32
:100B5800256E23BEB4EF05F0B2EF05F0C6EF05F041
:100B6800231E221E211E201E1F1E1E1E1D1E1C6C43
:100B7800000E1D221E221F22202221222222232291
:100B8800010E256E1BBECDEF05F0CBEF05F0DFEFB4
:100B980005F01B1E1A1E191E181E171E161E151EDE
:100BA800146C000E152216221722182219221A2256
:100BB8001B22010E251A20EE26F0070EDE6AE80633
:100BC800FDE21C501D101E101F10201021102210B5
:100BD8002310D8B4F2EF05F0F4EF05F046EF06F075
:100BE800010E246E02EF06F0D8901C361D361E3614
:100BF8001F362036213622362336242A23AE07EF25
:100C080006F009EF06F0F8EF05F0D89026362736FB
:100C1800283629362A362B362C362D361C50145CAD
:100C28001D5015581E5016581F5017582050185848
:100C38002150195822501A5823501B58D8A027EF72
:100C480006F029EF06F03AEF06F01C50145E1D502E
:100C5800155A1E50165A1F50175A2050185A21500C
:100C6800195A22501A5A23501B5A2680D8902332D8
:100C78002232213220321F321E321D321C32242EE3
:100C880009EF06F02550D8B44CEF06F04EEF06F009
:100C98005EEF06F02D1E2C1E2B1E2A1E291E281E56
:100CA800271E266C000E2722282229222A222B22E0
:100CB8002C222D2226C014F027C015F028C016F0CB
:100CC80029C017F02AC018F02BC019F02CC01AF050
:100CD8002DC01BF01200000E256E1BBE78EF06F02B
:100CE80076EF06F08AEF06F01B1E1A1E191E181E54
:100CF800171E161E151E146C000E1522162217221A
:100D0800182219221A221B22010E256E23BE91EFEA
:100D180006F08FEF06F0A1EF06F0231E221E211E1B
:100D2800201E1F1E1E1E1D1E1C6C000E1D221E22B4
:100D38001F2220222122222223221C501D101E1095
:100D48001F102010211022102310D8B4AEEF06F087
:100D5800B0EF06F0F8EF06F0010E246EBEEF06F0D5
:100D6800D8901C361D361E361F36203621362236C0
:100D78002336242A23AEC3EF06F0C5EF06F0B4EFFE
:100D880006F01C50145C1D5015581E5016581F5064
:100D98001758205018582150195822501A582350C3
:100DA8001B58D8A0DAEF06F0DCEF06F0ECEF06F0FF
:100DB8001C50145E1D50155A1E50165A1F50175AB3
:100DC8002050185A2150195A22501A5A23501B5A87
:100DD800D89023322232213220321F321E321D3265
:100DE8001C32242EC5EF06F02550D8B4FEEF06F0CD
:100DF80000EF07F010EF07F01B1E1A1E191E181E31
:100E0800171E161E151E146C000E15221622172208
:100E1800182219221A221B2214C014F015C015F02A
:100E280016C016F017C017F018C018F019C019F03E
:100E38001AC01AF01BC01BF01200C4CF0FF0C282F8
:100E48008AEF07F04B50D8B42CEF07F02EEF07F0DD
:100E5800A3EF07F0010E4A6E000E486E000E476EB3
:100E6800000E4B6EA3EF07F00F500B6E0C6A800E4E
:100E7800010193250D6E000E94210E6E0B500D5C32
:100E88000C500E58D8A04BEF07F04DEF07F0A3EF2A
:100E980007F0800E0B6E000E0C6E93510B5E945192
:100EA8000C5A0F500D6E0E6A0B500D5C0C500E58FC
:100EB800D8A061EF07F063EF07F0A3EF07F0000E8B
:100EC8004724D96E020E4820DA6E0FC0DFFF474A6A
:100ED800482A020E4A6EA3EF07F0000E4724D96E87
:100EE800020E4820DA6E0FC0DFFF474A482A48043E
:100EF800D8A081EF07F083EF07F0A3EF07F0010E0A
:100F08000101956F000E4A6EA3EF07F04A500B6E71
:100F18000C6A0C50000AD8B494EF07F0A3EF07F05E
:100F28000B50000AD8B426EF07F0010AD8B438EFFE
:100F380007F0030AD8B471EF07F0A3EF07F0120027
:100F480039503A10D8A4ABEF07F0ADEF07F0B3EF84
:100F580007F039C025F03AC026F0B9EF07F0FF0EC8
:100F68003924256EFF0E3A20266E3DA0BEEF07F00D
:100F7800C0EF07F0C9EF07F021C016F0176A1FC0CD
:100F880018F020C019F06FEC08F026BECEEF07F07D
:100F9800D0EF07F0D2EF07F0D6EF07F0000E266E7D
:100FA800000E256E000E246E000E236EE8EF07F08B
:100FB800000E176E200E166E1FC018F020C019F014
:100FC8006FEC08F0234A242A2550235C2450800A19
:100FD800226E2650800A2258D8A0F5EF07F0F7EFC6
:100FE80007F0DCEF07F03DB0FCEF07F0FEEF07F08D
:100FF80007EF08F021C016F0176A1FC018F020C0CC
:1010080019F06FEC08F0010E23241F6E000E242047
:10101800206E12003DA013EF08F015EF08F01FEF47
:1010280008F028C01FF029C020F026C021F027C0F2
:1010380022F04FEC09F02BBE24EF08F026EF08F061
:101048002CEF08F02AC02FF02BC030F030EF08F05A
:10105800000E306E000E2F6E000E2E6E000E2D6EDE
:1010680042EF08F0000E176E200E166E26C018F01C
:1010780027C019F06FEC08F02D4A2E2A2F502D5C4E
:101088002E50800A2C6E3050800A2C58D8A04FEF72
:1010980008F051EF08F036EF08F03DB056EF08F0D1
:1010A80058EF08F062EF08F028C01FF029C020F0C0
:1010B80026C021F027C022F04FEC09F028C014F018
:1010C80029C015F0B0EC09F02F501424266E3050CA
:1010D8001520276E120018501910D8B476EF08F0B2
:1010E80078EF08F081EF08F018501910D8A47FEFB6
:1010F80008F081EF08F086EF08F016509CEC0AF033
:10110800B9EF08F020EE04F01850D9261950DA2269
:10111800DE50DE10D8B493EF08F095EF08F0B0EF8A
:1011280008F020EE04F01850D9261950DA2210EEF3
:1011380002F01850E1261950E222DE50E65CE65033
:10114800800A1E6EDE50800A1E58D8B0AEEF08F036
:10115800B0EF08F0B9EF08F020EE02F01850D926E9
:101168001950DA22DE2A000EDD221200000E196E56
:10117800000E186E16501710D8B4C5EF08F0C7EF58
:1011880008F0EFEF08F0010E1A6ECFEF08F0D890D4
:10119800163617361A2A17AED4EF08F0D6EF08F02D
:1011A800CBEF08F0D890183619361650145C175043
:1011B8001558D8A0E2EF08F0E4EF08F0E9EF08F0DE
:1011C8001650145E1750155A1880D89017321632D8
:1011D8001A2ED6EF08F018C014F019C015F0120036
:1011E8008FC093F090C094F0000E0001AE6F000E17
:1011F800AD6F12EF09F08DC07CF08EC07DF0930EBC
:101208007E6F000E7F6F91C080F092C081F08FECEE
:1012180004F000017C51AD277D51AE2393C0F6FF49
:1012280094C0F7FFF86A0800F5500009D8A41FEF2A
:1012380009F021EF09F0FFEF08F0ADC08DF0AEC066
:101248008EF01200820EF66E150EF76E000EF86E16
:101258000900F5CF93F10900F5CF94F102EE00F003
:1012680011EE00F0EE6AE550E150FCE1E250FAE1DF
:101278000101956B00EEADF0260EEE6AE806FDE181
:1012880000EE39F0130EEE6AE806FDE14C904C9240
:10129800000129EF00F0000E256E000E246E60EFAD
:1012A80009F023C016F0176A21C018F022C019F0FF
:1012B8006FEC08F0244A252A24501F24D96E2550A3
:1012C8002020DA6EDF50236E2350D8A46EEF09F089
:1012D80070EF09F055EF09F0120027BE7EEF09F014
:1012E800275006E12604D8B07CEF09F07EEF09F01C
:1012F8008CEF09F026C028F027C029F0281E291EE7
:10130800284A292A28C026F029C027F090EF09F09A
:1013180026C026F027C027F01200080EB86E900EDF
:10132800AB6E240EAC6E820EAF6E060EB06E000E63
:10133800146E000E156EB0EC0AF0000E146E000E5E
:10134800156EABEC0AF0000E146E000E156EB5ECBF
:101358000AF0000E496E120014C016F015C017F0FE
:10136800B8EF09F0144A152A14C0D9FF15C0DAFFDE
:10137800DF50D8A4C2EF09F0C4EF09F0B6EF09F0C6
:101388001650145C146E17501558156E1200D59C23
:10139800000ED76E000ED66ED650D7CF16F0176A4D
:1013A80016C017F0166A1610436E1750446EF29462
:1013B800F28A840E146E150E156EA6EC0AF09F0EB6
:1013C800D56E1200F2944450D76E43C0D6FF4550F4
:1013D8004610D8B4F2EF09F0F4EF09F000EF0AF084
:1013E80002D800EF0AF00500FA6E4550FD6E46502F
:1013F800FE6EFF6AFA5012001200000E896E000E8F
:101408008A6E000E8B6EBF0E926E9368BF0E946E3E
:101418003C0E0F013A6F3F0E396F2F0E386F000EDA
:10142800616EF18E1200970E00019F6F000EA06F83
:10143800000E8D6F000E8E6F95C08FF096C090F0E5
:101448009F0E916F000E926FF4EC08F012009EAAA6
:1014580030EF0AF032EF0AF02BEF0AF0000E496E77
:10146800ABA239EF0AF03BEF0AF03DEF0AF0AB9878
:10147800AB88AE50120014501602F3CF18F0F4CF18
:1014880019F014501702F350192615501602F3508C
:10149800192618C014F019C015F01200D6CF07F09D
:1014A800D7CF08F00850036E0750056E03C006F04A
:1014B80005C001F006C002F01200700ED36E040ED3
:1014C800D26E400E9B6ED2AE6CEF0AF06EEF0AF051
:1014D80067EF0AF01200BFEC0AF001EC0AF061ECC9
:1014E8000AF087EC0AF0CBEC09F091EC09F0120055
:1014F800146E9EA882EF0AF084EF0AF07DEF0AF0DE
:1015080014C0ADFF1200000EC16E260EC06E000E94
:10151800C36E000EC46E110EC26E12009EBA97EF13
:101528000AF09AEF0AF0010E9BEF0AF0000E120083
:10153800156E15507CEC0AF012001550D76E14C0C9
:10154800D6FF120014C045F015C046F0120014C0B2
:10155800B1F015C0B2F0120014C03FF015C040F051
:10156800120014C0AFF015C0B0F012000A50D76EC8
:0E15780009C0D6FF1200D09E12000A00120019
:10FDEC0000663A2067617468657220353132207381
:10FDFC00616D706C65732066726F6D207468652020
:10FE0C006D6963726F70686F6E6520616E642063DC
:10FE1C00616C63756C6174652074686520667265CD
:10FE2C007175656E63790D0A00546865206C617399
:10FE3C007420323536204144432073616D706C65FB
:10FE4C00732066726F6D20746865206D6963726FC4
:10FE5C0070686F6E65206172653A200D0A000D0A9C
:10FE6C0054686520736F756E6420776176652063C6
:10FE7C00726F737365642061742074686520666F9B
:10FE8C006C6C6F77696E6720696E64696365733A31
:10FE9C000D0A00542F743A20496E637265617365C4
:10FEAC002F6465637265617365207468726573682D
:10FEBC006F6C64203133382D3131380D0A000D0A46
:10FECC0054686520736F756E642077617665206861
:10FEDC00616420256420706572696F64733A0D0A41
:10FEEC00002D2D2D2D2D2D2D2D2D2D2D2D2D2D2D63
:10FEFC002D2D2D2D2D2D2D2D2D2D2D2D2D2D2D0D46
:10FF0C000A000D0A61766572616765207065726919
:10FF1C006F64203D2025642075730D0A004D6963C4
:10FF2C00726F70686F6E65206578706572696D654B
:10FF3C006E74730D0A00566F6C756D652072616E70
:10FF4C0067653A202564202D2025640D0A007A3A35
:10FF5C0020436C65617220746865207465726D69EC
:10FF6C006E616C0D0A005468726573686F6C642066
:10FF7C006174206D696E696D756D0D0A005A3A20B9
:10FF8C0052657365742070726F636573736F720D55
:10FF9C000A00556E6B6E6F776E206B65792025634A
:10FFAC000D0A002564202D202564203D2025640D9C
:10FFBC000A003F3A2048656C70206D656E750D0A1D
:10FFCC0000696E4C61622030380D0A00446576275A
:10FFDC0032310D0A000D0A535B25645D20006F3A27
:10FFEC00206B0D0A00206B0D0A3E00256420003E9C
:03FFFC00200000E2
:020000040020DA
:08000000FFFFFFFFFFFFFFFF00
:020000040030CA
:0E000000FF281F3CFFBF85FF0FC00FE00F4021
:00000001FF
