:020000040000FA
:0400000027EF00F0F6
:100008005382FACF08F0FBCF09F0D9CF0AF0DACF44
:100018000BF0F2AA12EF00F014EF00F01DEF00F061
:10002800F2A419EF00F01BEF00F01DEF00F0E7EC71
:1000380007F00BC0DAFF0AC0D9FF09C0FBFF08C0F0
:10004800FAFF53921100CAEF07F085EC08F0000E92
:100058000D6E000E0C6EB7EC08F0F294F2A437EFB8
:1000680000F039EF00F032EF00F0460E0C6E0B0E88
:100078000D6EBCEC08F0F28EF28CD70E0001EE6F1C
:10008800FF0EEF6F4FEC08F0420E0001EE6FFF0E0F
:10009800EF6F4FEC08F0E20E0001EE6FFF0EEF6F0E
:1000A8004FEC08F0FC0E0001EE6FFF0EEF6F4FEC07
:1000B80008F0C282C2B263EF00F065EF00F05EEFB5
:1000C80000F00001AC51D8B46CEF00F06EEF00F016
:1000D80094EF00F0000EAC6FC10EEE6FFE0EEF6FE6
:1000E8004FEC08F0000E0001F96FF80EEE6FFF0EEE
:1000F800EF6F600EF925D96EDA6A000EDA22DF504A
:10010800456E4550F06FF16B4FEC08F00001F92B8C
:100118003F0EF96592EF00F094EF00F079EF00F0F0
:10012800A8EC08F00009D8B49CEF00F09EEF00F0AE
:1001380065EF00F063EC08F00001F86F77EF01F06D
:10014800210EEE6FFF0EEF6F4FEC08F0C80E0001A6
:10015800EE6FFF0EEF6F4FEC08F0EB0E0001EE6F45
:10016800FF0EEF6F4FEC08F0A20E0001EE6FFF0ECE
:10017800EF6F4FEC08F0730E0001EE6FFF0EEF6F9C
:100188004FEC08F0F60E0001EE6FFE0EEF6F4FEC2D
:1001980008F0790E0001EE6FFE0EEF6F4FEC08F0DD
:1001A800210E0001EE6FFF0EEF6F4FEC08F065EFC8
:1001B80000F0F20EEE6FFF0EEF6F4FEC08F065EFF8
:1001C80000F0000EFA6FF40EEE6FFE0EEF6F4FECBC
:1001D80008F00001FA2B270EFA65F5EF00F0F7EFAB
:1001E80000F0E7EF00F0FF0065EF00F0000EFA6F97
:1001F800F50EEE6FFF0EEF6F4FEC08F00001FA2BD3
:10020800270EFA650AEF01F00CEF01F0FCEF00F0A1
:1002180065EF00F0050EFB27000EFC235B0EEE6F6A
:10022800FF0EEF6FFB518008F06FFC51D8A0E82A51
:100238000008F16F800EFB25F26F000EFC21F36FB2
:100248004FEC08F065EF00F0FB51FC11D8B42FEF2C
:1002580001F031EF01F04BEF01F0050EFB5F000EEE
:10026800FC5B5B0EEE6FFF0EEF6FFB518008F06FCB
:10027800FC51D8A0E82A0008F16F800EFB25F26F28
:10028800000EFC21F36F4FEC08F065EF00F05B0EF9
:10029800EE6FFF0EEF6FFB518008F06FFC51D8A096
:1002A800E82A0008F16F800EFB25F26F000EFC2192
:1002B800F36F4FEC08F08B0E0001EE6FFF0EEF6F3F
:1002C8004FEC08F065EF00F0010E526E65EF00F09C
:1002D800B70EEE6FFF0EEF6FF8C0F0F0F16B4FEC5A
:1002E80008F065EF00F0F851456E466A4650000A7E
:1002F800D8B481EF01F06CEF01F045503F0AD8B453
:10030800A4EF00F06B0AD8B40EEF01F00E0AD8B4CF
:10031800E5EF00F03C0AD8B468EF01F0090AD8B458
:10032800DDEF00F01B0AD8B428EF01F00E0AD8B4AC
:10033800FAEF00F06CEF01F027EF00F02BC0D5F0DA
:100348002CC0D6F02DC0D7F02EC0D8F02FC0D9F0D1
:1003580030C0DAF031C0DBF032C0DCF00001DCBFC5
:10036800B8EF01F0BBEF01F0010EBCEF01F0000E99
:10037800D36FD46BD351D411D8B4C5EF01F0C7EF04
:1003880001F0D7EF01F0DC1FDB1FDA1FD91FD81FE0
:10039800D71FD61FD56D000ED623D723D823D92330
:1003A800DA23DB23DC234ABEDCEF01F0DEEF01F0C9
:1003B800DFEF01F04B924ABEECEF01F04A5006E144
:1003C8004904D8B0EAEF01F0ECEF01F0F2EF01F0E8
:1003D800000ED06F010ECF6FF6EF01F049C0CFF0DD
:1003E8004AC0D0F047C0D1F048C0D2F0D351D411A0
:1003F800D8A401EF02F003EF02F00AEF02F04BA4D9
:1004080008EF02F00AEF02F00DEF02F0D107D8A0D2
:10041800D207000EDE6F1F0EDD6F000ECC6F92EF5D
:1004280002F0DD07D8A0DE07AD0EDD25D96E000E7F
:10043800DE21DA6ED5C00CF0D6C00DF0D7C00EF0B4
:10044800D8C00FF0D9C010F0DAC011F0DBC012F03C
:10045800DCC013F00A0E146E000E156E000E166E38
:10046800000E176E000E186E000E196E000E1A6E32
:10047800000E1B6EF1EC04F00CC033F00DC034F02C
:100488000EC035F00FC036F010C037F011C038F08C
:1004980012C039F013C03AF033C01EF035C01FF057
:1004A8008BEC07F01E50300FDF6E0001CF07D8A08D
:1004B800D007D107D8A0D207D5C00CF0D6C00DF010
:1004C800D7C00EF0D8C00FF0D9C010F0DAC011F0C4
:1004D800DBC012F0DCC013F00A0E146E000E156EAD
:1004E800000E166E000E176E000E186E000E196EB6
:1004F800000E1A6E000E1B6E2DEC04F00CC0D5F029
:100508000DC0D6F00EC0D7F00FC0D8F010C0D9F08B
:1005180011C0DAF012C0DBF013C0DCF00001DEBF5E
:100528009EEF02F0DE5108E1DD05D8A09EEF02F053
:10053800A0EF02F0D0EF02F0D551D611D711D811A3
:10054800D911DA11DB11DC11D8A4ADEF02F0AFEF4D
:1005580002F015EF02F0D0BFBCEF02F0D05106E177
:10056800CF05D8B0BAEF02F0BCEF02F015EF02F0F9
:10057800D2BFC7EF02F0D25108E1D105D8A0C7EF2A
:1005880002F0C9EF02F0D0EF02F04BB2CEEF02F06A
:10059800D0EF02F015EF02F0D351D411D8A4D7EF61
:1005A80002F0D9EF02F0E0EF02F04BA4DEEF02F028
:1005B800E0EF02F0FEEF02F0DD07D8A0DE07D3512E
:1005C800D411D8A4EAEF02F0ECEF02F0F2EF02F057
:1005D800000ECE6F2B0ECD6FF6EF02F0000ECE6F31
:1005E8002D0ECD6FAD0EDD25D96E000EDE21DA6E33
:1005F800CDC0DFFF29C01EF02AC01FF0AD0EDD25DB
:10060800206E000EDE21216ED1C022F0D2C023F070
:100618008BEC06F01EC029F01FC02AF012003DC066
:10062800D9FF3EC0DAFFDECFF6FFDDCFF7FFF86A6D
:100638000800F550250AD8A424EF03F026EF03F0AC
:1006480010EF04F03DC0D9FF3EC0DAFFDE2A000EED
:10065800DD22000E486E000E476E47C04BF048C0C2
:100668004CF049684A683DC0D9FF3EC0DAFFDECF8A
:10067800F6FFDDCFF7FFF86A0800F550630AD8A443
:1006880048EF03F04AEF03F072EF03F03DC0D9FFE3
:100698003EC0DAFFDE2A000EDD223FC0D9FF40C08F
:1006A800DAFFDFCF41F0020EDE26DFCF42F0000E88
:1006B800DD2241C0D9FF42C0DAFFDF500001E76FF9
:1006C8003BC017F03CC018F0E7C019F021EC06F069
:1006D80017C03BF018C03CF02CEF04F03DC0D9FF28
:1006E8003EC0DAFFDECFF6FFDDCFF7FFF86A08007D
:1006F800F550640AD8B483EF03F085EF03F098EF60
:1007080003F03DC0D9FF3EC0DAFFDECFF6FFDDCFF4
:10071800F7FFF86A0800F550690AD8A496EF03F0C5
:1007280098EF03F0D9EF03F03DC0D9FF3EC0DAFFE0
:10073800DE2A000EDD223FC0D9FF40C0DAFFDFCF3E
:1007480041F0020EDE26DFCF42F0000EDD2241C06E
:10075800D9FF42C0DAFFDECFDFF0DDCFE0F00001E5
:10076800000EE0BFFF0EE16FE26FE36FE46FE56F2D
:10077800E66F3BC029F03CC02AF0DFC02BF0E0C098
:100788002CF0E1C02DF0E2C02EF0E3C02FF0E4C061
:1007980030F0E5C031F0E6C032F0A2EC01F029C03B
:1007A8003BF02AC03CF02CEF04F03DC0D9FF3EC01E
:1007B800DAFFDECFF6FFDDCFF7FFF86A0800F55065
:1007C800250AD8A4EAEF03F0ECEF03F003EF04F0F6
:1007D8003DC0D9FF3EC0DAFFDE2A000EDD22000E42
:1007E8000F6E250E0E6E3BC010F03CC011F0ECEC05
:1007F80006F0000E3C6E010E3B6E2CEF04F03DC07F
:10080800D9FF3EC0DAFFDE2A000EDD22000E3C6E64
:10081800000E3B6E2CEF04F03DC0D9FF3EC0DAFF5E
:10082800DECFF6FFDDCFF7FFF86A0800F5500E6E51
:100838000F6A3BC010F03CC011F0ECEC06F03DC074
:10084800D9FF3EC0DAFFDE2A000EDD22FDEF03F0FD
:100858001200000E1D6E1BBE36EF04F034EF04F0DC
:1008680048EF04F01B1E1A1E191E181E171E161E0E
:10087800151E146C000E1522162217221822192292
:100888001A221B22010E1D6E13BE4FEF04F04DEF0E
:1008980004F061EF04F0131E121E111E101E0F1E2D
:1008A8000E1E0D1E0C6C000E0D220E220F221022A1
:1008B800112212221322010E1D1A20EE1EF0070E1D
:1008C800DE6AE806FDE2145015101610171018100D
:1008D80019101A101B10D8B474EF04F076EF04F056
:1008E800C8EF04F0010E1C6E84EF04F0D8901436A3
:1008F800153616361736183619361A361B361C2A88
:100908001BAE89EF04F08BEF04F07AEF04F0D89077
:100918001E361F3620362136223623362436253613
:1009280014500C5C15500D5816500E5817500F588F
:1009380018501058195011581A5012581B50135863
:10094800D8A0A9EF04F0ABEF04F0BCEF04F014500A
:100958000C5E15500D5A16500E5A17500F5A185053
:10096800105A1950115A1A50125A1B50135A1E80F5
:10097800D8901B321A321932183217321632153201
:1009880014321C2E8BEF04F01D50D8B4CEEF04F0B7
:10099800D0EF04F0E0EF04F0251E241E231E221ED3
:1009A800211E201E1F1E1E6C000E1F222022212227
:1009B80022222322242225221EC00CF01FC00DF063
:1009C80020C00EF021C00FF022C010F023C011F09B
:1009D80024C012F025C013F01200000E1D6E13BEC5
:1009E800FAEF04F0F8EF04F00CEF05F0131E121EF6
:1009F800111E101E0F1E0E1E0D1E0C6C000E0D2259
:100A08000E220F221022112212221322010E1D6E15
:100A18001BBE13EF05F011EF05F023EF05F01B1EC9
:100A28001A1E191E181E171E161E151E146C000EEF
:100A3800152216221722182219221A221B221450B4
:100A4800151016101710181019101A101B10D8B4FA
:100A580030EF05F032EF05F07AEF05F0010E1C6E6D
:100A680040EF05F0D8901436153616361736183676
:100A780019361A361B361C2A1BAE45EF05F047EF10
:100A880005F036EF05F014500C5C15500D58165053
:100A98000E5817500F5818501058195011581A500E
:100AA80012581B501358D8A05CEF05F05EEF05F004
:100AB8006EEF05F014500C5E15500D5A16500E5A74
:100AC80017500F5A1850105A1950115A1A50125AD2
:100AD8001B50135AD8901B321A3219321832173257
:100AE8001632153214321C2E47EF05F01D50D8B4BB
:100AF80080EF05F082EF05F092EF05F0131E121E4D
:100B0800111E101E0F1E0E1E0D1E0C6C000E0D2247
:100B18000E220F2210221122122213220CC00CF0D6
:100B28000DC00DF00EC00EF00FC00FF010C010F089
:100B380011C011F012C012F013C013F01200C4CF8C
:100B480007F007EF06F05250D8B4ADEF05F0AFEF5D
:100B580005F020EF06F0010E516E000E506E000EEB
:100B6800526E20EF06F00750036E046A800E0001F3
:100B7800FB25056E000EFC21066E0350055C045033
:100B88000658D8A0CAEF05F0CCEF05F020EF06F024
:100B9800800E036E000E046EFB51035EFC51045A76
:100BA8000750056E066A0350055C04500658D8A025
:100BB800E0EF05F0E2EF05F020EF06F0600E5024BC
:100BC800D96EDA6A000EDA2207C0DFFF502A020E59
:100BD800516E20EF06F0600E5024D96EDA6A000ECE
:100BE800DA2207C0DFFF502A3F0E5064FEEF05F0FF
:100BF80000EF06F020EF06F0010E0001AC6F000ECA
:100C0800516E20EF06F05150036E046A0450000A3A
:100C1800D8B411EF06F020EF06F00350000AD8B45C
:100C2800A7EF05F0010AD8B4B7EF05F0030AD8B466
:100C3800EFEF05F020EF06F0120047504810D8A457
:100C480028EF06F02AEF06F030EF06F047C01DF057
:100C580048C01EF036EF06F0FF0E47241D6EFF0E4B
:100C680048201E6E4BA03BEF06F03DEF06F046EF26
:100C780006F019C00EF00F6A17C010F018C011F076
:100C8800ECEC06F01EBE4BEF06F04DEF06F04FEF12
:100C980006F053EF06F0000E1E6E000E1D6E000EDD
:100CA8001C6E000E1B6E65EF06F0000E0F6E200E18
:100CB8000E6E17C010F018C011F0ECEC06F01B4ACD
:100CC8001C2A1D501B5C1C50800A1A6E1E50800A7C
:100CD8001A58D8A072EF06F074EF06F059EF06F034
:100CE8004BB079EF06F07BEF06F084EF06F019C001
:100CF8000EF00F6A17C010F018C011F0ECEC06F0F7
:100D0800010E1B24176E000E1C20186E12004BA03B
:100D180090EF06F092EF06F09CEF06F020C017F077
:100D280021C018F01EC019F01FC01AF069EC07F0B6
:100D380023BEA1EF06F0A3EF06F0A9EF06F022C04C
:100D480027F023C028F0ADEF06F0000E286E000E45
:100D5800276E000E266E000E256EBFEF06F0000E01
:100D68000F6E200E0E6E1EC010F01FC011F0ECECBE
:100D780006F0254A262A2750255C2650800A246E2C
:100D88002850800A2458D8A0CCEF06F0CEEF06F001
:100D9800B3EF06F04BB0D3EF06F0D5EF06F0DFEF78
:100DA80006F020C017F021C018F01EC019F01FC0AF
:100DB8001AF069EC07F020C00CF021C00DF003EC2C
:100DC80008F027500C241E6E28500D201F6E1200AC
:100DD80010501110D8B4F3EF06F0F5EF06F0FEEF5F
:100DE80006F010501110D8A4FCEF06F0FEEF06F044
:100DF80003EF07F00E50B2EC08F036EF07F020EEE4
:100E080004F01050D9261150DA22DE50DE10D8B482
:100E180010EF07F012EF07F02DEF07F020EE04F0C7
:100E28001050D9261150DA2210EE02F01050E126A7
:100E38001150E222DE50E65CE650800A166EDE5063
:100E4800800A1658D8B02BEF07F02DEF07F036EFD1
:100E580007F020EE02F01050D9261150DA22DE2ACF
:100E6800000EDD221200EAC043F0EBC044F0000E91
:100E78000001A16F000EA06F55EF07F0E8C03BF02E
:100E8800E9C03CF0430E3D6E000E3E6EECC03FF0F4
:100E9800EDC040F013EC03F03B500001A0273C509C
:100EA800A12343C0F6FF44C0F7FFF86A0800F550D5
:100EB8000009D8A462EF07F064EF07F042EF07F0EB
:100EC800A0C0E8F0A1C0E9F01200000E1D6E000EEF
:100ED8001C6E7AEF07F01BC00EF00F6A19C010F0F5
:100EE8001AC011F0ECEC06F01C4A1D2A1C501724FD
:100EF800D96E1D501820DA6EDF501B6E1B50D8A417
:100F080088EF07F08AEF07F06FEF07F012001FBEB7
:100F180098EF07F01F5006E11E04D8B096EF07F0CF
:100F280098EF07F0A6EF07F01EC020F01FC021F0D1
:100F3800201E211E204A212A20C01EF021C01FF099
:100F4800AAEF07F01EC01EF01FC01FF01200080E07
:100F5800B86E900EAB6E240EAC6E820EAF6E060E9F
:100F6800B06E000E0C6E000E0D6EC6EC08F0000E92
:100F78000C6E000E0D6EC1EC08F0000E0C6E000E2B
:100F88000D6ECBEC08F0000E4F6E1200AE0EF66E32
:100F9800110EF76E000EF86E0900F5CFFBF0090090
:100FA800F5CFFCF000EE60F06D0EEE6AE806FDE1AC
:100FB80000EE47F00C0EEE6AE806FDE153905392FE
:100FC800000129EF00F0F2944E50D76E4DC0D6FFC5
:100FD8000001AA51AB11D8B4F4EF07F0F6EF07F00F
:100FE80002EF08F002D802EF08F00500FA6EAA51E5
:100FF800FD6EAB51FE6EFF6AFA50120012000CC073
:101008000EF00DC00FF00BEF08F00C4A0D2A0CC0C3
:10101800D9FF0DC0DAFFDF50D8A415EF08F017EF9D
:1010280008F009EF08F00E500C5C0C6E0F500D58CC
:101038000D6E1200D59C000ED76E000ED66ED650DF
:10104800D7CF0EF00F6A0EC00FF00E6A0E104D6E5D
:101058000F504E6EF294F28AB00E0C6E110E0D6E99
:10106800BCEC08F09F0ED56E1200000E896E000EC3
:101078008A6E000E8B6EBF0E926E9368BF0E946ED2
:101088003C0E0F013A6F3F0E396F2F0E386F000E6E
:10109800616EF18E1200F00E0001F66F000EF76F10
:1010A800000EE86F000EE96FEEC0EAF0EFC0EBF05B
:1010B800F60EEC6F000EED6F37EC07F012009EAAEB
:1010C80068EF08F06AEF08F063EF08F0000E4F6E63
:1010D800ABA271EF08F073EF08F075EF08F0AB986A
:1010E800AB88AE501200700ED36E040ED26E400E56
:1010F8009B6ED2AE82EF08F084EF08F07DEF08F027
:101108001200D5EC08F039EC08F077EC08F09DEC0B
:1011180008F01EEC08F0ABEC07F012000C6E9EA86D
:1011280098EF08F09AEF08F093EF08F00CC0ADFFC5
:101138001200000EC16E260EC06E000EC36E000EA9
:10114800C46E110EC26E12009EBAADEF08F0B0EF79
:1011580008F0010EB1EF08F0000E12000D6E0D50F0
:1011680092EC08F012000D50D76E0CC0D6FF12009A
:101178000CC0AAF00DC0ABF012000CC0A4F00DC05A
:10118800A5F012000CC0A6F00DC0A7F012000CC00C
:10119800A2F00DC0A3F012000250D76E01C0D6FF16
:0A11A8001200D09E12000A0012008F
:10FE780000663A20676174686572203531322073F4
:10FE8800616D706C65732066726F6D207468652093
:10FE98006D6963726F70686F6E6520616E64206350
:10FEA800616C63756C617465207468652066726541
:10FEB8007175656E63790D0A00546865206C61730D
:10FEC8007420323536204144432073616D706C656F
:10FED800732066726F6D20746865206D6963726F38
:10FEE80070686F6E65206172653A200D0A00542FA4
:10FEF800743A20496E6372656173652F6465637235
:10FF080065617365207468726573686F6C6420310D
:10FF180033382D3131380D0A002D2D2D2D2D2D2D55
:10FF28002D2D2D2D2D2D2D2D2D2D2D2D2D2D2D2DF9
:10FF38002D2D2D2D2D2D2D0D0A004D6963726F70FD
:10FF4800686F6E65206578706572696D656E74732B
:10FF58000D0A00566F6C756D652072616E67653AA3
:10FF6800202564202D2025640D0A007A3A20436C50
:10FF780065617220746865207465726D696E616C64
:10FF88000D0A005468726573686F6C642061742090
:10FF98006D696E696D756D0D0A005A3A2052657368
:10FFA80065742070726F636573736F720D0A005504
:10FFB8006E6B6E6F776E206B65792025630D0A0076
:10FFC8003F3A2048656C70206D656E750D0A0069B2
:10FFD8006E4C61622030380D0A0044657627323154
:10FFE8000D0A006F3A206B0D0A00206B0D0A3E00C7
:08FFF800256420003E200000FA
:020000040020DA
:08000000FFFFFFFFFFFFFFFF00
:020000040030CA
:0E000000FF281F3CFFBF85FF0FC00FE00F4021
:00000001FF
